{
  "contractName": "ChainRelay",
  "abi": [
    {
      "inputs": [
        {
          "internalType": "address",
          "name": "wrappingContract",
          "type": "address"
        },
        {
          "internalType": "address",
          "name": "relayer",
          "type": "address"
        }
      ],
      "stateMutability": "nonpayable",
      "type": "constructor"
    },
    {
      "inputs": [
        {
          "internalType": "uint256",
          "name": "blockNo",
          "type": "uint256"
        },
        {
          "internalType": "bytes",
          "name": "merkleproof",
          "type": "bytes"
        }
      ],
      "name": "isEventInBlock",
      "outputs": [
        {
          "internalType": "bool",
          "name": "",
          "type": "bool"
        }
      ],
      "stateMutability": "nonpayable",
      "type": "function"
    },
    {
      "inputs": [
        {
          "internalType": "int256",
          "name": "blockNo",
          "type": "int256"
        },
        {
          "internalType": "bytes",
          "name": "blockheader",
          "type": "bytes"
        }
      ],
      "name": "addBlockHeader",
      "outputs": [
        {
          "internalType": "bool",
          "name": "",
          "type": "bool"
        }
      ],
      "stateMutability": "nonpayable",
      "type": "function"
    }
  ],
  "bytecode": "0x60806040527fffffffffffffffffffffffffffffffffffffffffffffffffffffffffffffffff60035534801561003457600080fd5b506040516106c43803806106c4833981810160405281019061005691906100f3565b816000806101000a81548173ffffffffffffffffffffffffffffffffffffffff021916908373ffffffffffffffffffffffffffffffffffffffff16021790555080600160006101000a81548173ffffffffffffffffffffffffffffffffffffffff021916908373ffffffffffffffffffffffffffffffffffffffff1602179055505050610181565b6000815190506100ed8161016a565b92915050565b6000806040838503121561010a57610109610165565b5b6000610118858286016100de565b9250506020610129858286016100de565b9150509250929050565b600061013e82610145565b9050919050565b600073ffffffffffffffffffffffffffffffffffffffff82169050919050565b600080fd5b61017381610133565b811461017e57600080fd5b50565b610534806101906000396000f3fe608060405234801561001057600080fd5b50600436106100365760003560e01c8063353e86d91461003b5780639c62b2b71461006b575b600080fd5b610055600480360381019061005091906102df565b61009b565b604051610062919061034a565b60405180910390f35b61008560048036038101906100809190610283565b6100a7565b604051610092919061034a565b60405180910390f35b60006001905092915050565b6000600160009054906101000a900473ffffffffffffffffffffffffffffffffffffffff1673ffffffffffffffffffffffffffffffffffffffff163373ffffffffffffffffffffffffffffffffffffffff161461010357600080fd5b600354831361011157600080fd5b81600260008581526020019081526020016000209080519060200190610138929190610146565b508260038190555092915050565b828054610152906103ea565b90600052602060002090601f01602090048101928261017457600085556101bb565b82601f1061018d57805160ff19168380011785556101bb565b828001600101855582156101bb579182015b828111156101ba57825182559160200191906001019061019f565b5b5090506101c891906101cc565b5090565b5b808211156101e55760008160009055506001016101cd565b5090565b60006101fc6101f78461038a565b610365565b905082815260208101848484011115610218576102176104b0565b5b6102238482856103db565b509392505050565b600082601f8301126102405761023f6104ab565b5b81356102508482602086016101e9565b91505092915050565b600081359050610268816104d0565b92915050565b60008135905061027d816104e7565b92915050565b6000806040838503121561029a576102996104ba565b5b60006102a885828601610259565b925050602083013567ffffffffffffffff8111156102c9576102c86104b5565b5b6102d58582860161022b565b9150509250929050565b600080604083850312156102f6576102f56104ba565b5b60006103048582860161026e565b925050602083013567ffffffffffffffff811115610325576103246104b5565b5b6103318582860161022b565b9150509250929050565b610344816103bb565b82525050565b600060208201905061035f600083018461033b565b92915050565b600061036f610380565b905061037b828261041c565b919050565b6000604051905090565b600067ffffffffffffffff8211156103a5576103a461047c565b5b6103ae826104bf565b9050602081019050919050565b60008115159050919050565b6000819050919050565b6000819050919050565b82818337600083830152505050565b6000600282049050600182168061040257607f821691505b602082108114156104165761041561044d565b5b50919050565b610425826104bf565b810181811067ffffffffffffffff821117156104445761044361047c565b5b80604052505050565b7f4e487b7100000000000000000000000000000000000000000000000000000000600052602260045260246000fd5b7f4e487b7100000000000000000000000000000000000000000000000000000000600052604160045260246000fd5b600080fd5b600080fd5b600080fd5b600080fd5b6000601f19601f8301169050919050565b6104d9816103c7565b81146104e457600080fd5b50565b6104f0816103d1565b81146104fb57600080fd5b5056fea2646970667358221220c5230ebb07aaf8c8183095d1c917b55c3c15cd5fc3f11943d807ab9c52125ea064736f6c63430008060033",
  "immutableReferences": {},
  "source": "// SPDX-License-Identifier: MIT\npragma solidity ^0.8.0;\n\ncontract ChainRelay  {\n    address internal _wrappingContract;\n    address internal _relayer;\n    mapping (int256 => bytes) internal _blockHeader;\n    int256 internal _latestBlock = -1;\n\n    constructor(address wrappingContract, address relayer) {\n        _wrappingContract = wrappingContract;\n        _relayer = relayer;\n    }\n\n    function isEventInBlock(uint256 blockNo, bytes memory merkleproof) public returns (bool) {\n        return true;\n    }\n\n    function addBlockHeader(int256 blockNo, bytes memory blockheader) public returns (bool) {\n        require(msg.sender == _relayer);\n        require(blockNo > _latestBlock);\n\n        _blockHeader[blockNo] = blockheader;\n        _latestBlock = blockNo;\n    }\n\n}\n",
  "sourcePath": "/home/jan/workspace/token_compositions/contracts/ChainRelay.sol",
  "compiler": {
    "name": "solc",
    "version": "0.8.6+commit.11564f7e.Emscripten.clang"
  },
  "schemaVersion": "3.4.4",
  "updatedAt": "2022-01-14T09:55:14.282Z",
  "devdoc": {
    "kind": "dev",
    "methods": {},
    "version": 1
  },
  "userdoc": {
    "kind": "user",
    "methods": {},
    "version": 1
  }
}