{
  "contractName": "Component",
  "abi": [
    {
      "inputs": [
        {
          "internalType": "string",
          "name": "componentName",
          "type": "string"
        },
        {
          "internalType": "string",
          "name": "componentShort",
          "type": "string"
        },
        {
          "components": [
            {
              "internalType": "address",
              "name": "adr",
              "type": "address"
            },
            {
              "internalType": "uint256",
              "name": "amount",
              "type": "uint256"
            }
          ],
          "internalType": "struct Ingredient[]",
          "name": "ingr",
          "type": "tuple[]"
        }
      ],
      "stateMutability": "nonpayable",
      "type": "constructor"
    },
    {
      "anonymous": false,
      "inputs": [
        {
          "indexed": true,
          "internalType": "address",
          "name": "owner",
          "type": "address"
        },
        {
          "indexed": true,
          "internalType": "address",
          "name": "approved",
          "type": "address"
        },
        {
          "indexed": true,
          "internalType": "uint256",
          "name": "tokenId",
          "type": "uint256"
        }
      ],
      "name": "Approval",
      "type": "event"
    },
    {
      "anonymous": false,
      "inputs": [
        {
          "indexed": true,
          "internalType": "address",
          "name": "owner",
          "type": "address"
        },
        {
          "indexed": true,
          "internalType": "address",
          "name": "operator",
          "type": "address"
        },
        {
          "indexed": false,
          "internalType": "bool",
          "name": "approved",
          "type": "bool"
        }
      ],
      "name": "ApprovalForAll",
      "type": "event"
    },
    {
      "anonymous": false,
      "inputs": [
        {
          "indexed": true,
          "internalType": "address",
          "name": "from",
          "type": "address"
        },
        {
          "indexed": true,
          "internalType": "address",
          "name": "to",
          "type": "address"
        },
        {
          "indexed": true,
          "internalType": "uint256",
          "name": "tokenId",
          "type": "uint256"
        }
      ],
      "name": "Transfer",
      "type": "event"
    },
    {
      "inputs": [
        {
          "internalType": "address",
          "name": "to",
          "type": "address"
        },
        {
          "internalType": "uint256",
          "name": "tokenId",
          "type": "uint256"
        }
      ],
      "name": "approve",
      "outputs": [],
      "stateMutability": "nonpayable",
      "type": "function"
    },
    {
      "inputs": [
        {
          "internalType": "address",
          "name": "owner",
          "type": "address"
        }
      ],
      "name": "balanceOf",
      "outputs": [
        {
          "internalType": "uint256",
          "name": "",
          "type": "uint256"
        }
      ],
      "stateMutability": "view",
      "type": "function"
    },
    {
      "inputs": [
        {
          "internalType": "uint256",
          "name": "tokenId",
          "type": "uint256"
        }
      ],
      "name": "getApproved",
      "outputs": [
        {
          "internalType": "address",
          "name": "",
          "type": "address"
        }
      ],
      "stateMutability": "view",
      "type": "function"
    },
    {
      "inputs": [
        {
          "internalType": "address",
          "name": "owner",
          "type": "address"
        },
        {
          "internalType": "address",
          "name": "operator",
          "type": "address"
        }
      ],
      "name": "isApprovedForAll",
      "outputs": [
        {
          "internalType": "bool",
          "name": "",
          "type": "bool"
        }
      ],
      "stateMutability": "view",
      "type": "function"
    },
    {
      "inputs": [],
      "name": "name",
      "outputs": [
        {
          "internalType": "string",
          "name": "",
          "type": "string"
        }
      ],
      "stateMutability": "view",
      "type": "function"
    },
    {
      "inputs": [
        {
          "internalType": "uint256",
          "name": "tokenId",
          "type": "uint256"
        }
      ],
      "name": "ownerOf",
      "outputs": [
        {
          "internalType": "address",
          "name": "",
          "type": "address"
        }
      ],
      "stateMutability": "view",
      "type": "function"
    },
    {
      "inputs": [
        {
          "internalType": "address",
          "name": "from",
          "type": "address"
        },
        {
          "internalType": "address",
          "name": "to",
          "type": "address"
        },
        {
          "internalType": "uint256",
          "name": "tokenId",
          "type": "uint256"
        }
      ],
      "name": "safeTransferFrom",
      "outputs": [],
      "stateMutability": "nonpayable",
      "type": "function"
    },
    {
      "inputs": [
        {
          "internalType": "address",
          "name": "from",
          "type": "address"
        },
        {
          "internalType": "address",
          "name": "to",
          "type": "address"
        },
        {
          "internalType": "uint256",
          "name": "tokenId",
          "type": "uint256"
        },
        {
          "internalType": "bytes",
          "name": "_data",
          "type": "bytes"
        }
      ],
      "name": "safeTransferFrom",
      "outputs": [],
      "stateMutability": "nonpayable",
      "type": "function"
    },
    {
      "inputs": [
        {
          "internalType": "address",
          "name": "operator",
          "type": "address"
        },
        {
          "internalType": "bool",
          "name": "approved",
          "type": "bool"
        }
      ],
      "name": "setApprovalForAll",
      "outputs": [],
      "stateMutability": "nonpayable",
      "type": "function"
    },
    {
      "inputs": [
        {
          "internalType": "bytes4",
          "name": "interfaceId",
          "type": "bytes4"
        }
      ],
      "name": "supportsInterface",
      "outputs": [
        {
          "internalType": "bool",
          "name": "",
          "type": "bool"
        }
      ],
      "stateMutability": "view",
      "type": "function"
    },
    {
      "inputs": [],
      "name": "symbol",
      "outputs": [
        {
          "internalType": "string",
          "name": "",
          "type": "string"
        }
      ],
      "stateMutability": "view",
      "type": "function"
    },
    {
      "inputs": [
        {
          "internalType": "uint256",
          "name": "tokenId",
          "type": "uint256"
        }
      ],
      "name": "tokenURI",
      "outputs": [
        {
          "internalType": "string",
          "name": "",
          "type": "string"
        }
      ],
      "stateMutability": "view",
      "type": "function"
    },
    {
      "inputs": [
        {
          "internalType": "address",
          "name": "from",
          "type": "address"
        },
        {
          "internalType": "address",
          "name": "to",
          "type": "address"
        },
        {
          "internalType": "uint256",
          "name": "tokenId",
          "type": "uint256"
        }
      ],
      "name": "transferFrom",
      "outputs": [],
      "stateMutability": "nonpayable",
      "type": "function"
    },
    {
      "inputs": [
        {
          "internalType": "uint256",
          "name": "batchSize",
          "type": "uint256"
        },
        {
          "components": [
            {
              "internalType": "address",
              "name": "adr",
              "type": "address"
            },
            {
              "internalType": "uint256",
              "name": "tId",
              "type": "uint256"
            }
          ],
          "internalType": "struct Batch[]",
          "name": "batchesToBurn",
          "type": "tuple[]"
        }
      ],
      "name": "mintBatch",
      "outputs": [
        {
          "internalType": "uint256",
          "name": "",
          "type": "uint256"
        }
      ],
      "stateMutability": "nonpayable",
      "type": "function"
    },
    {
      "inputs": [
        {
          "internalType": "uint256",
          "name": "tokenId",
          "type": "uint256"
        }
      ],
      "name": "getTokenBalance",
      "outputs": [
        {
          "internalType": "uint256",
          "name": "",
          "type": "uint256"
        }
      ],
      "stateMutability": "view",
      "type": "function"
    },
    {
      "inputs": [
        {
          "internalType": "uint256",
          "name": "tokenId",
          "type": "uint256"
        },
        {
          "internalType": "uint256",
          "name": "amount",
          "type": "uint256"
        }
      ],
      "name": "burn",
      "outputs": [],
      "stateMutability": "nonpayable",
      "type": "function"
    },
    {
      "inputs": [
        {
          "internalType": "address",
          "name": "",
          "type": "address"
        },
        {
          "internalType": "address",
          "name": "",
          "type": "address"
        },
        {
          "internalType": "uint256",
          "name": "",
          "type": "uint256"
        },
        {
          "internalType": "bytes",
          "name": "",
          "type": "bytes"
        }
      ],
      "name": "onERC721Received",
      "outputs": [
        {
          "internalType": "bytes4",
          "name": "",
          "type": "bytes4"
        }
      ],
      "stateMutability": "nonpayable",
      "type": "function"
    }
  ],
  "bytecode": "0x60806040526000600a60006101000a81548160ff0219169083151502179055503480156200002c57600080fd5b5060405162003aa038038062003aa083398181016040528101906200005291906200041c565b828281600090805190602001906200006c929190620001b9565b50806001908051906020019062000085929190620001b9565b50505033600660006101000a81548173ffffffffffffffffffffffffffffffffffffffff021916908373ffffffffffffffffffffffffffffffffffffffff160217905550600081511115620001b0576001600a60006101000a81548160ff02191690831515021790555060005b8151811015620001ae576009828281518110620001145762000113620006ef565b5b6020026020010151908060018154018082558091505060019003906000526020600020906002020160009091909190915060008201518160000160006101000a81548173ffffffffffffffffffffffffffffffffffffffff021916908373ffffffffffffffffffffffffffffffffffffffff1602179055506020820151816001015550508080620001a59062000643565b915050620000f2565b505b505050620007b0565b828054620001c790620005d7565b90600052602060002090601f016020900481019282620001eb576000855562000237565b82601f106200020657805160ff191683800117855562000237565b8280016001018555821562000237579182015b828111156200023657825182559160200191906001019062000219565b5b5090506200024691906200024a565b5090565b5b80821115620002655760008160009055506001016200024b565b5090565b6000620002806200027a84620004fe565b620004d5565b90508083825260208201905082856040860282011115620002a657620002a562000757565b5b60005b85811015620002da5781620002bf8882620003ac565b845260208401935060408301925050600181019050620002a9565b5050509392505050565b6000620002fb620002f5846200052d565b620004d5565b9050828152602081018484840111156200031a57620003196200075c565b5b62000327848285620005a1565b509392505050565b60008151905062000340816200077c565b92915050565b600082601f8301126200035e576200035d6200074d565b5b81516200037084826020860162000269565b91505092915050565b600082601f8301126200039157620003906200074d565b5b8151620003a3848260208601620002e4565b91505092915050565b600060408284031215620003c557620003c462000752565b5b620003d16040620004d5565b90506000620003e3848285016200032f565b6000830152506020620003f98482850162000405565b60208301525092915050565b600081519050620004168162000796565b92915050565b60008060006060848603121562000438576200043762000766565b5b600084015167ffffffffffffffff81111562000459576200045862000761565b5b620004678682870162000379565b935050602084015167ffffffffffffffff8111156200048b576200048a62000761565b5b620004998682870162000379565b925050604084015167ffffffffffffffff811115620004bd57620004bc62000761565b5b620004cb8682870162000346565b9150509250925092565b6000620004e1620004f4565b9050620004ef82826200060d565b919050565b6000604051905090565b600067ffffffffffffffff8211156200051c576200051b6200071e565b5b602082029050602081019050919050565b600067ffffffffffffffff8211156200054b576200054a6200071e565b5b62000556826200076b565b9050602081019050919050565b6000620005708262000577565b9050919050565b600073ffffffffffffffffffffffffffffffffffffffff82169050919050565b6000819050919050565b60005b83811015620005c1578082015181840152602081019050620005a4565b83811115620005d1576000848401525b50505050565b60006002820490506001821680620005f057607f821691505b60208210811415620006075762000606620006c0565b5b50919050565b62000618826200076b565b810181811067ffffffffffffffff821117156200063a57620006396200071e565b5b80604052505050565b6000620006508262000597565b91507fffffffffffffffffffffffffffffffffffffffffffffffffffffffffffffffff82141562000686576200068562000691565b5b600182019050919050565b7f4e487b7100000000000000000000000000000000000000000000000000000000600052601160045260246000fd5b7f4e487b7100000000000000000000000000000000000000000000000000000000600052602260045260246000fd5b7f4e487b7100000000000000000000000000000000000000000000000000000000600052603260045260246000fd5b7f4e487b7100000000000000000000000000000000000000000000000000000000600052604160045260246000fd5b600080fd5b600080fd5b600080fd5b600080fd5b600080fd5b600080fd5b6000601f19601f8301169050919050565b620007878162000563565b81146200079357600080fd5b50565b620007a18162000597565b8114620007ad57600080fd5b50565b6132e080620007c06000396000f3fe608060405234801561001057600080fd5b506004361061010b5760003560e01c80636352211e116100a2578063a22cb46511610071578063a22cb465146102f0578063b390c0ab1461030c578063b88d4fde14610328578063c87b56dd14610344578063e985e9c5146103745761010b565b80636352211e1461024257806370a08231146102725780639105d748146102a257806395d89b41146102d25761010b565b80630b7ba535116100de5780630b7ba535146101aa578063150b7a02146101da57806323b872dd1461020a57806342842e0e146102265761010b565b806301ffc9a71461011057806306fdde0314610140578063081812fc1461015e578063095ea7b31461018e575b600080fd5b61012a60048036038101906101259190612137565b6103a4565b6040516101379190612667565b60405180910390f35b610148610486565b604051610155919061269d565b60405180910390f35b61017860048036038101906101739190612191565b610518565b6040516101859190612600565b60405180910390f35b6101a860048036038101906101a391906120f7565b61059d565b005b6101c460048036038101906101bf91906121eb565b6106b5565b6040516101d191906128ff565b60405180910390f35b6101f460048036038101906101ef9190612034565b610b2a565b6040516102019190612682565b60405180910390f35b610224600480360381019061021f9190611fe1565b610b3e565b005b610240600480360381019061023b9190611fe1565b610b9e565b005b61025c60048036038101906102579190612191565b610bbe565b6040516102699190612600565b60405180910390f35b61028c60048036038101906102879190611f74565b610c70565b60405161029991906128ff565b60405180910390f35b6102bc60048036038101906102b79190612191565b610d28565b6040516102c991906128ff565b60405180910390f35b6102da610d95565b6040516102e7919061269d565b60405180910390f35b61030a600480360381019061030591906120b7565b610e27565b005b61032660048036038101906103219190612247565b610e3d565b005b610342600480360381019061033d9190612034565b610f37565b005b61035e60048036038101906103599190612191565b610f99565b60405161036b919061269d565b60405180910390f35b61038e60048036038101906103899190611fa1565b611040565b60405161039b9190612667565b60405180910390f35b60007f80ac58cd000000000000000000000000000000000000000000000000000000007bffffffffffffffffffffffffffffffffffffffffffffffffffffffff1916827bffffffffffffffffffffffffffffffffffffffffffffffffffffffff1916148061046f57507f5b5e139f000000000000000000000000000000000000000000000000000000007bffffffffffffffffffffffffffffffffffffffffffffffffffffffff1916827bffffffffffffffffffffffffffffffffffffffffffffffffffffffff1916145b8061047f575061047e826110d4565b5b9050919050565b60606000805461049590612bd3565b80601f01602080910402602001604051908101604052809291908181526020018280546104c190612bd3565b801561050e5780601f106104e35761010080835404028352916020019161050e565b820191906000526020600020905b8154815290600101906020018083116104f157829003601f168201915b5050505050905090565b60006105238261113e565b610562576040517f08c379a00000000000000000000000000000000000000000000000000000000081526004016105599061281f565b60405180910390fd5b6004600083815260200190815260200160002060009054906101000a900473ffffffffffffffffffffffffffffffffffffffff169050919050565b60006105a882610bbe565b90508073ffffffffffffffffffffffffffffffffffffffff168373ffffffffffffffffffffffffffffffffffffffff161415610619576040517f08c379a00000000000000000000000000000000000000000000000000000000081526004016106109061287f565b60405180910390fd5b8073ffffffffffffffffffffffffffffffffffffffff166106386111aa565b73ffffffffffffffffffffffffffffffffffffffff1614806106675750610666816106616111aa565b611040565b5b6106a6576040517f08c379a000000000000000000000000000000000000000000000000000000000815260040161069d9061277f565b60405180910390fd5b6106b083836111b2565b505050565b6000600660009054906101000a900473ffffffffffffffffffffffffffffffffffffffff1673ffffffffffffffffffffffffffffffffffffffff163373ffffffffffffffffffffffffffffffffffffffff1614610747576040517f08c379a000000000000000000000000000000000000000000000000000000000815260040161073e906128df565b60405180910390fd5b600183101561075557600080fd5b600a60009054906101000a900460ff1615610ac45760005b6009805490508110156109985782818151811061078d5761078c612d3d565b5b60200260200101516000015173ffffffffffffffffffffffffffffffffffffffff16600982815481106107c3576107c2612d3d565b5b906000526020600020906002020160000160009054906101000a900473ffffffffffffffffffffffffffffffffffffffff1673ffffffffffffffffffffffffffffffffffffffff161461084b576040517f08c379a0000000000000000000000000000000000000000000000000000000008152600401610842906127df565b60405180910390fd5b60006009828154811061086157610860612d3d565b5b9060005260206000209060020201600101549050600084838151811061088a57610889612d3d565b5b60200260200101516020015190506000600984815481106108ae576108ad612d3d565b5b906000526020600020906002020160000160009054906101000a900473ffffffffffffffffffffffffffffffffffffffff16905086836108ee9190612a8f565b8173ffffffffffffffffffffffffffffffffffffffff16639105d748846040518263ffffffff1660e01b815260040161092791906128ff565b60206040518083038186803b15801561093f57600080fd5b505afa158015610953573d6000803e3d6000fd5b505050506040513d601f19601f8201168201806040525081019061097791906121be565b101561098257600080fd5b505050808061099090612c36565b91505061076d565b5060005b600980549050811015610ac2576000600982815481106109bf576109be612d3d565b5b906000526020600020906002020160000160009054906101000a900473ffffffffffffffffffffffffffffffffffffffff1690508073ffffffffffffffffffffffffffffffffffffffff1663b390c0ab858481518110610a2257610a21612d3d565b5b60200260200101516020015160098581548110610a4257610a41612d3d565b5b90600052602060002090600202016001015488610a5f9190612a8f565b6040518363ffffffff1660e01b8152600401610a7c92919061291a565b600060405180830381600087803b158015610a9657600080fd5b505af1158015610aaa573d6000803e3d6000fd5b50505050508080610aba90612c36565b91505061099c565b505b610ace600761126b565b6000610ada6007611281565b9050610b08600660009054906101000a900473ffffffffffffffffffffffffffffffffffffffff168261128f565b8360086000838152602001908152602001600020819055508091505092915050565b600063150b7a0260e01b9050949350505050565b610b4f610b496111aa565b8261145d565b610b8e576040517f08c379a0000000000000000000000000000000000000000000000000000000008152600401610b85906128bf565b60405180910390fd5b610b9983838361153b565b505050565b610bb983838360405180602001604052806000815250610f37565b505050565b6000806002600084815260200190815260200160002060009054906101000a900473ffffffffffffffffffffffffffffffffffffffff169050600073ffffffffffffffffffffffffffffffffffffffff168173ffffffffffffffffffffffffffffffffffffffff161415610c67576040517f08c379a0000000000000000000000000000000000000000000000000000000008152600401610c5e906127bf565b60405180910390fd5b80915050919050565b60008073ffffffffffffffffffffffffffffffffffffffff168273ffffffffffffffffffffffffffffffffffffffff161415610ce1576040517f08c379a0000000000000000000000000000000000000000000000000000000008152600401610cd89061279f565b60405180910390fd5b600360008373ffffffffffffffffffffffffffffffffffffffff1673ffffffffffffffffffffffffffffffffffffffff168152602001908152602001600020549050919050565b6000610d3b610d356111aa565b8361145d565b610d7a576040517f08c379a0000000000000000000000000000000000000000000000000000000008152600401610d719061289f565b60405180910390fd5b60086000838152602001908152602001600020549050919050565b606060018054610da490612bd3565b80601f0160208091040260200160405190810160405280929190818152602001828054610dd090612bd3565b8015610e1d5780601f10610df257610100808354040283529160200191610e1d565b820191906000526020600020905b815481529060010190602001808311610e0057829003601f168201915b5050505050905090565b610e39610e326111aa565b8383611797565b5050565b610e4e610e486111aa565b8361145d565b610e8d576040517f08c379a0000000000000000000000000000000000000000000000000000000008152600401610e849061289f565b60405180910390fd5b8060086000848152602001908152602001600020541015610ee3576040517f08c379a0000000000000000000000000000000000000000000000000000000008152600401610eda906126bf565b60405180910390fd5b80600860008481526020019081526020016000206000828254610f069190612ae9565b92505081905550600060086000848152602001908152602001600020541415610f3357610f3282611904565b5b5050565b610f48610f426111aa565b8361145d565b610f87576040517f08c379a0000000000000000000000000000000000000000000000000000000008152600401610f7e906128bf565b60405180910390fd5b610f9384848484611a15565b50505050565b6060610fa48261113e565b610fe3576040517f08c379a0000000000000000000000000000000000000000000000000000000008152600401610fda9061285f565b60405180910390fd5b6000610fed611a71565b9050600081511161100d5760405180602001604052806000815250611038565b8061101784611a88565b6040516020016110289291906125dc565b6040516020818303038152906040525b915050919050565b6000600560008473ffffffffffffffffffffffffffffffffffffffff1673ffffffffffffffffffffffffffffffffffffffff16815260200190815260200160002060008373ffffffffffffffffffffffffffffffffffffffff1673ffffffffffffffffffffffffffffffffffffffff16815260200190815260200160002060009054906101000a900460ff16905092915050565b60007f01ffc9a7000000000000000000000000000000000000000000000000000000007bffffffffffffffffffffffffffffffffffffffffffffffffffffffff1916827bffffffffffffffffffffffffffffffffffffffffffffffffffffffff1916149050919050565b60008073ffffffffffffffffffffffffffffffffffffffff166002600084815260200190815260200160002060009054906101000a900473ffffffffffffffffffffffffffffffffffffffff1673ffffffffffffffffffffffffffffffffffffffff1614159050919050565b600033905090565b816004600083815260200190815260200160002060006101000a81548173ffffffffffffffffffffffffffffffffffffffff021916908373ffffffffffffffffffffffffffffffffffffffff160217905550808273ffffffffffffffffffffffffffffffffffffffff1661122583610bbe565b73ffffffffffffffffffffffffffffffffffffffff167f8c5be1e5ebec7d5bd14f71427d1e84f3dd0314c0f7b2291e5b200ac8c7c3b92560405160405180910390a45050565b6001816000016000828254019250508190555050565b600081600001549050919050565b600073ffffffffffffffffffffffffffffffffffffffff168273ffffffffffffffffffffffffffffffffffffffff1614156112ff576040517f08c379a00000000000000000000000000000000000000000000000000000000081526004016112f6906127ff565b60405180910390fd5b6113088161113e565b15611348576040517f08c379a000000000000000000000000000000000000000000000000000000000815260040161133f906126ff565b60405180910390fd5b61135460008383611be9565b6001600360008473ffffffffffffffffffffffffffffffffffffffff1673ffffffffffffffffffffffffffffffffffffffff16815260200190815260200160002060008282546113a49190612a08565b92505081905550816002600083815260200190815260200160002060006101000a81548173ffffffffffffffffffffffffffffffffffffffff021916908373ffffffffffffffffffffffffffffffffffffffff160217905550808273ffffffffffffffffffffffffffffffffffffffff16600073ffffffffffffffffffffffffffffffffffffffff167fddf252ad1be2c89b69c2b068fc378daa952ba7f163c4a11628f55a4df523b3ef60405160405180910390a45050565b60006114688261113e565b6114a7576040517f08c379a000000000000000000000000000000000000000000000000000000000815260040161149e9061275f565b60405180910390fd5b60006114b283610bbe565b90508073ffffffffffffffffffffffffffffffffffffffff168473ffffffffffffffffffffffffffffffffffffffff16148061152157508373ffffffffffffffffffffffffffffffffffffffff1661150984610518565b73ffffffffffffffffffffffffffffffffffffffff16145b8061153257506115318185611040565b5b91505092915050565b8273ffffffffffffffffffffffffffffffffffffffff1661155b82610bbe565b73ffffffffffffffffffffffffffffffffffffffff16146115b1576040517f08c379a00000000000000000000000000000000000000000000000000000000081526004016115a89061283f565b60405180910390fd5b600073ffffffffffffffffffffffffffffffffffffffff168273ffffffffffffffffffffffffffffffffffffffff161415611621576040517f08c379a00000000000000000000000000000000000000000000000000000000081526004016116189061271f565b60405180910390fd5b61162c838383611be9565b6116376000826111b2565b6001600360008573ffffffffffffffffffffffffffffffffffffffff1673ffffffffffffffffffffffffffffffffffffffff16815260200190815260200160002060008282546116879190612ae9565b925050819055506001600360008473ffffffffffffffffffffffffffffffffffffffff1673ffffffffffffffffffffffffffffffffffffffff16815260200190815260200160002060008282546116de9190612a08565b92505081905550816002600083815260200190815260200160002060006101000a81548173ffffffffffffffffffffffffffffffffffffffff021916908373ffffffffffffffffffffffffffffffffffffffff160217905550808273ffffffffffffffffffffffffffffffffffffffff168473ffffffffffffffffffffffffffffffffffffffff167fddf252ad1be2c89b69c2b068fc378daa952ba7f163c4a11628f55a4df523b3ef60405160405180910390a4505050565b8173ffffffffffffffffffffffffffffffffffffffff168373ffffffffffffffffffffffffffffffffffffffff161415611806576040517f08c379a00000000000000000000000000000000000000000000000000000000081526004016117fd9061273f565b60405180910390fd5b80600560008573ffffffffffffffffffffffffffffffffffffffff1673ffffffffffffffffffffffffffffffffffffffff16815260200190815260200160002060008473ffffffffffffffffffffffffffffffffffffffff1673ffffffffffffffffffffffffffffffffffffffff16815260200190815260200160002060006101000a81548160ff0219169083151502179055508173ffffffffffffffffffffffffffffffffffffffff168373ffffffffffffffffffffffffffffffffffffffff167f17307eab39ab6107e8899845ad3d59bd9653f200f220920489ca2b5937696c31836040516118f79190612667565b60405180910390a3505050565b600061190f82610bbe565b905061191d81600084611be9565b6119286000836111b2565b6001600360008373ffffffffffffffffffffffffffffffffffffffff1673ffffffffffffffffffffffffffffffffffffffff16815260200190815260200160002060008282546119789190612ae9565b925050819055506002600083815260200190815260200160002060006101000a81549073ffffffffffffffffffffffffffffffffffffffff021916905581600073ffffffffffffffffffffffffffffffffffffffff168273ffffffffffffffffffffffffffffffffffffffff167fddf252ad1be2c89b69c2b068fc378daa952ba7f163c4a11628f55a4df523b3ef60405160405180910390a45050565b611a2084848461153b565b611a2c84848484611bee565b611a6b576040517f08c379a0000000000000000000000000000000000000000000000000000000008152600401611a62906126df565b60405180910390fd5b50505050565b606060405180602001604052806000815250905090565b60606000821415611ad0576040518060400160405280600181526020017f30000000000000000000000000000000000000000000000000000000000000008152509050611be4565b600082905060005b60008214611b02578080611aeb90612c36565b915050600a82611afb9190612a5e565b9150611ad8565b60008167ffffffffffffffff811115611b1e57611b1d612d6c565b5b6040519080825280601f01601f191660200182016040528015611b505781602001600182028036833780820191505090505b5090505b60008514611bdd57600182611b699190612ae9565b9150600a85611b789190612c7f565b6030611b849190612a08565b60f81b818381518110611b9a57611b99612d3d565b5b60200101907effffffffffffffffffffffffffffffffffffffffffffffffffffffffffffff1916908160001a905350600a85611bd69190612a5e565b9450611b54565b8093505050505b919050565b505050565b6000611c0f8473ffffffffffffffffffffffffffffffffffffffff16611d85565b15611d78578373ffffffffffffffffffffffffffffffffffffffff1663150b7a02611c386111aa565b8786866040518563ffffffff1660e01b8152600401611c5a949392919061261b565b602060405180830381600087803b158015611c7457600080fd5b505af1925050508015611ca557506040513d601f19601f82011682018060405250810190611ca29190612164565b60015b611d28573d8060008114611cd5576040519150601f19603f3d011682016040523d82523d6000602084013e611cda565b606091505b50600081511415611d20576040517f08c379a0000000000000000000000000000000000000000000000000000000008152600401611d17906126df565b60405180910390fd5b805181602001fd5b63150b7a0260e01b7bffffffffffffffffffffffffffffffffffffffffffffffffffffffff1916817bffffffffffffffffffffffffffffffffffffffffffffffffffffffff191614915050611d7d565b600190505b949350505050565b600080823b905060008111915050919050565b6000611dab611da684612968565b612943565b90508083825260208201905082856040860282011115611dce57611dcd612da5565b5b60005b85811015611dfe5781611de48882611efa565b845260208401935060408301925050600181019050611dd1565b5050509392505050565b6000611e1b611e1684612994565b612943565b905082815260208101848484011115611e3757611e36612daa565b5b611e42848285612b91565b509392505050565b600081359050611e598161324e565b92915050565b600082601f830112611e7457611e73612d9b565b5b8135611e84848260208601611d98565b91505092915050565b600081359050611e9c81613265565b92915050565b600081359050611eb18161327c565b92915050565b600081519050611ec68161327c565b92915050565b600082601f830112611ee157611ee0612d9b565b5b8135611ef1848260208601611e08565b91505092915050565b600060408284031215611f1057611f0f612da0565b5b611f1a6040612943565b90506000611f2a84828501611e4a565b6000830152506020611f3e84828501611f4a565b60208301525092915050565b600081359050611f5981613293565b92915050565b600081519050611f6e81613293565b92915050565b600060208284031215611f8a57611f89612db4565b5b6000611f9884828501611e4a565b91505092915050565b60008060408385031215611fb857611fb7612db4565b5b6000611fc685828601611e4a565b9250506020611fd785828601611e4a565b9150509250929050565b600080600060608486031215611ffa57611ff9612db4565b5b600061200886828701611e4a565b935050602061201986828701611e4a565b925050604061202a86828701611f4a565b9150509250925092565b6000806000806080858703121561204e5761204d612db4565b5b600061205c87828801611e4a565b945050602061206d87828801611e4a565b935050604061207e87828801611f4a565b925050606085013567ffffffffffffffff81111561209f5761209e612daf565b5b6120ab87828801611ecc565b91505092959194509250565b600080604083850312156120ce576120cd612db4565b5b60006120dc85828601611e4a565b92505060206120ed85828601611e8d565b9150509250929050565b6000806040838503121561210e5761210d612db4565b5b600061211c85828601611e4a565b925050602061212d85828601611f4a565b9150509250929050565b60006020828403121561214d5761214c612db4565b5b600061215b84828501611ea2565b91505092915050565b60006020828403121561217a57612179612db4565b5b600061218884828501611eb7565b91505092915050565b6000602082840312156121a7576121a6612db4565b5b60006121b584828501611f4a565b91505092915050565b6000602082840312156121d4576121d3612db4565b5b60006121e284828501611f5f565b91505092915050565b6000806040838503121561220257612201612db4565b5b600061221085828601611f4a565b925050602083013567ffffffffffffffff81111561223157612230612daf565b5b61223d85828601611e5f565b9150509250929050565b6000806040838503121561225e5761225d612db4565b5b600061226c85828601611f4a565b925050602061227d85828601611f4a565b9150509250929050565b61229081612b1d565b82525050565b61229f81612b2f565b82525050565b6122ae81612b3b565b82525050565b60006122bf826129c5565b6122c981856129db565b93506122d9818560208601612ba0565b6122e281612db9565b840191505092915050565b60006122f8826129d0565b61230281856129ec565b9350612312818560208601612ba0565b61231b81612db9565b840191505092915050565b6000612331826129d0565b61233b81856129fd565b935061234b818560208601612ba0565b80840191505092915050565b6000612364600f836129ec565b915061236f82612dca565b602082019050919050565b60006123876032836129ec565b915061239282612df3565b604082019050919050565b60006123aa601c836129ec565b91506123b582612e42565b602082019050919050565b60006123cd6024836129ec565b91506123d882612e6b565b604082019050919050565b60006123f06019836129ec565b91506123fb82612eba565b602082019050919050565b6000612413602c836129ec565b915061241e82612ee3565b604082019050919050565b60006124366038836129ec565b915061244182612f32565b604082019050919050565b6000612459602a836129ec565b915061246482612f81565b604082019050919050565b600061247c6029836129ec565b915061248782612fd0565b604082019050919050565b600061249f601f836129ec565b91506124aa8261301f565b602082019050919050565b60006124c26020836129ec565b91506124cd82613048565b602082019050919050565b60006124e5602c836129ec565b91506124f082613071565b604082019050919050565b60006125086029836129ec565b9150612513826130c0565b604082019050919050565b600061252b602f836129ec565b91506125368261310f565b604082019050919050565b600061254e6021836129ec565b91506125598261315e565b604082019050919050565b60006125716020836129ec565b915061257c826131ad565b602082019050919050565b60006125946031836129ec565b915061259f826131d6565b604082019050919050565b60006125b7600d836129ec565b91506125c282613225565b602082019050919050565b6125d681612b87565b82525050565b60006125e88285612326565b91506125f48284612326565b91508190509392505050565b60006020820190506126156000830184612287565b92915050565b60006080820190506126306000830187612287565b61263d6020830186612287565b61264a60408301856125cd565b818103606083015261265c81846122b4565b905095945050505050565b600060208201905061267c6000830184612296565b92915050565b600060208201905061269760008301846122a5565b92915050565b600060208201905081810360008301526126b781846122ed565b905092915050565b600060208201905081810360008301526126d881612357565b9050919050565b600060208201905081810360008301526126f88161237a565b9050919050565b600060208201905081810360008301526127188161239d565b9050919050565b60006020820190508181036000830152612738816123c0565b9050919050565b60006020820190508181036000830152612758816123e3565b9050919050565b6000602082019050818103600083015261277881612406565b9050919050565b6000602082019050818103600083015261279881612429565b9050919050565b600060208201905081810360008301526127b88161244c565b9050919050565b600060208201905081810360008301526127d88161246f565b9050919050565b600060208201905081810360008301526127f881612492565b9050919050565b60006020820190508181036000830152612818816124b5565b9050919050565b60006020820190508181036000830152612838816124d8565b9050919050565b60006020820190508181036000830152612858816124fb565b9050919050565b600060208201905081810360008301526128788161251e565b9050919050565b6000602082019050818103600083015261289881612541565b9050919050565b600060208201905081810360008301526128b881612564565b9050919050565b600060208201905081810360008301526128d881612587565b9050919050565b600060208201905081810360008301526128f8816125aa565b9050919050565b600060208201905061291460008301846125cd565b92915050565b600060408201905061292f60008301856125cd565b61293c60208301846125cd565b9392505050565b600061294d61295e565b90506129598282612c05565b919050565b6000604051905090565b600067ffffffffffffffff82111561298357612982612d6c565b5b602082029050602081019050919050565b600067ffffffffffffffff8211156129af576129ae612d6c565b5b6129b882612db9565b9050602081019050919050565b600081519050919050565b600081519050919050565b600082825260208201905092915050565b600082825260208201905092915050565b600081905092915050565b6000612a1382612b87565b9150612a1e83612b87565b9250827fffffffffffffffffffffffffffffffffffffffffffffffffffffffffffffffff03821115612a5357612a52612cb0565b5b828201905092915050565b6000612a6982612b87565b9150612a7483612b87565b925082612a8457612a83612cdf565b5b828204905092915050565b6000612a9a82612b87565b9150612aa583612b87565b9250817fffffffffffffffffffffffffffffffffffffffffffffffffffffffffffffffff0483118215151615612ade57612add612cb0565b5b828202905092915050565b6000612af482612b87565b9150612aff83612b87565b925082821015612b1257612b11612cb0565b5b828203905092915050565b6000612b2882612b67565b9050919050565b60008115159050919050565b60007fffffffff0000000000000000000000000000000000000000000000000000000082169050919050565b600073ffffffffffffffffffffffffffffffffffffffff82169050919050565b6000819050919050565b82818337600083830152505050565b60005b83811015612bbe578082015181840152602081019050612ba3565b83811115612bcd576000848401525b50505050565b60006002820490506001821680612beb57607f821691505b60208210811415612bff57612bfe612d0e565b5b50919050565b612c0e82612db9565b810181811067ffffffffffffffff82111715612c2d57612c2c612d6c565b5b80604052505050565b6000612c4182612b87565b91507fffffffffffffffffffffffffffffffffffffffffffffffffffffffffffffffff821415612c7457612c73612cb0565b5b600182019050919050565b6000612c8a82612b87565b9150612c9583612b87565b925082612ca557612ca4612cdf565b5b828206905092915050565b7f4e487b7100000000000000000000000000000000000000000000000000000000600052601160045260246000fd5b7f4e487b7100000000000000000000000000000000000000000000000000000000600052601260045260246000fd5b7f4e487b7100000000000000000000000000000000000000000000000000000000600052602260045260246000fd5b7f4e487b7100000000000000000000000000000000000000000000000000000000600052603260045260246000fd5b7f4e487b7100000000000000000000000000000000000000000000000000000000600052604160045260246000fd5b600080fd5b600080fd5b600080fd5b600080fd5b600080fd5b600080fd5b6000601f19601f8301169050919050565b7f42616c616e636520746f6f206c6f770000000000000000000000000000000000600082015250565b7f4552433732313a207472616e7366657220746f206e6f6e20455243373231526560008201527f63656976657220696d706c656d656e7465720000000000000000000000000000602082015250565b7f4552433732313a20746f6b656e20616c7265616479206d696e74656400000000600082015250565b7f4552433732313a207472616e7366657220746f20746865207a65726f2061646460008201527f7265737300000000000000000000000000000000000000000000000000000000602082015250565b7f4552433732313a20617070726f766520746f2063616c6c657200000000000000600082015250565b7f4552433732313a206f70657261746f7220717565727920666f72206e6f6e657860008201527f697374656e7420746f6b656e0000000000000000000000000000000000000000602082015250565b7f4552433732313a20617070726f76652063616c6c6572206973206e6f74206f7760008201527f6e6572206e6f7220617070726f76656420666f7220616c6c0000000000000000602082015250565b7f4552433732313a2062616c616e636520717565727920666f7220746865207a6560008201527f726f206164647265737300000000000000000000000000000000000000000000602082015250565b7f4552433732313a206f776e657220717565727920666f72206e6f6e657869737460008201527f656e7420746f6b656e0000000000000000000000000000000000000000000000602082015250565b7f426174636865732070726f766964656420696e2077726f6e67206f7264657200600082015250565b7f4552433732313a206d696e7420746f20746865207a65726f2061646472657373600082015250565b7f4552433732313a20617070726f76656420717565727920666f72206e6f6e657860008201527f697374656e7420746f6b656e0000000000000000000000000000000000000000602082015250565b7f4552433732313a207472616e73666572206f6620746f6b656e2074686174206960008201527f73206e6f74206f776e0000000000000000000000000000000000000000000000602082015250565b7f4552433732314d657461646174613a2055524920717565727920666f72206e6f60008201527f6e6578697374656e7420746f6b656e0000000000000000000000000000000000602082015250565b7f4552433732313a20617070726f76616c20746f2063757272656e74206f776e6560008201527f7200000000000000000000000000000000000000000000000000000000000000602082015250565b7f43616c6c6572206973206e6f74206f776e6572206e6f7220617070726f766564600082015250565b7f4552433732313a207472616e736665722063616c6c6572206973206e6f74206f60008201527f776e6572206e6f7220617070726f766564000000000000000000000000000000602082015250565b7f4163636573732064656e69656400000000000000000000000000000000000000600082015250565b61325781612b1d565b811461326257600080fd5b50565b61326e81612b2f565b811461327957600080fd5b50565b61328581612b3b565b811461329057600080fd5b50565b61329c81612b87565b81146132a757600080fd5b5056fea2646970667358221220b54a106e4c9ba4d2df6a45dc80bceac9807d069cf01ba8404cd5db1dc6d8b3fd64736f6c63430008060033",
  "immutableReferences": {},
  "source": "// SPDX-License-Identifier: MIT\npragma solidity ^0.8.0;\n\nimport \"openzeppelin-solidity/contracts/token/ERC721/IERC721Receiver.sol\";\nimport \"openzeppelin-solidity/contracts/token/ERC721/ERC721.sol\";\nimport \"openzeppelin-solidity/contracts/utils/Counters.sol\";\n\n\nstruct Batch {\n    address adr;\n    uint256 tId;\n}\n\nstruct Ingredient {\n    address adr;\n    uint256 amount;\n}\n\n/** @title Token Compositions Contract */\ncontract Component is IERC721Receiver, ERC721 {\n    \n    address internal _owner;\n    \n    using Counters for Counters.Counter;\n    Counters.Counter private _tokenIds;\n    \n    // Map tokenId to (remaining) balance of token/batch\n    mapping(uint256 => uint256) private _tokenBalance;\n    \n    // Manage token ingredients\n    Ingredient[] internal _ingredients;\n    bool internal _hasIngredients = false;\n\n    \n    modifier isOwner() {\n        require(msg.sender == _owner, \"Access denied\");\n        _;\n    }\n    \n    /** @dev Component constructor\n     *  @param componentName Name of component\n     *  @param componentShort Abbreviation of component name\n     *  @param ingr Array of Ingredients (Pass empty array for basic component)\n     */\n    constructor(string memory componentName, string memory componentShort, Ingredient[] memory ingr) ERC721(componentName, componentShort) {\n        _owner = msg.sender;\n        \n        if (ingr.length > 0) {\n            _hasIngredients = true;\n            for(uint i=0; i < ingr.length; i++) {\n                _ingredients.push(ingr[i]);\n            }\n        }\n    }\n    \n\n    /** @dev Mint new batch of components\n     *  @param batchSize Size of new batch\n     *  @param batchesToBurn Array with addresses & batch IDs of ingredients to burn for batch creation\n     *  @return newTokenId TokenID of newly minted batch\n     */\n    function mintBatch(uint256 batchSize, Batch[] memory batchesToBurn) public isOwner returns (uint256) {\n        require(batchSize >= 1);\n        \n        if (_hasIngredients) {\n            // TODO add batch merging\n            \n            // check for ingredients\n            for(uint256 i=0; i < _ingredients.length; i++) {\n                require(_ingredients[i].adr == batchesToBurn[i].adr, \"Batches provided in wrong order\");\n                uint256 amountNeededPerItem = _ingredients[i].amount;\n                uint256 tokenToBurn = batchesToBurn[i].tId;\n                Component c = Component(_ingredients[i].adr);\n                require(c.getTokenBalance(tokenToBurn) >= amountNeededPerItem * batchSize);\n            }\n            \n            \n            // burn ingredients\n            for(uint256 i=0; i < _ingredients.length; i++) {\n                Component c = Component(_ingredients[i].adr);\n                c.burn(batchesToBurn[i].tId, batchSize * _ingredients[i].amount);\n            }\n        }\n        \n        \n        // create new token/batch\n        _tokenIds.increment();\n    \n        uint256 newTokenId = _tokenIds.current();\n        _mint(_owner, newTokenId);\n        _tokenBalance[newTokenId] = batchSize;\n    \n        return newTokenId;\n    }\n    \n    \n    /** @dev Returns remaining balance of a batch\n     *  @param tokenId Batch ID\n     *  @return _tokenBalance[tokenId] Remaining balance of batch\n     */\n    function getTokenBalance(uint256 tokenId) public view returns (uint256) {\n        require(_isApprovedOrOwner(_msgSender(), tokenId), \"Caller is not owner nor approved\");\n        \n        return _tokenBalance[tokenId];\n    }\n    \n    /** @dev Reduce batch by amount\n     *  @param tokenId Batch ID to use\n     *  @param amount Amount to burn\n     */\n    function burn(uint256 tokenId, uint256 amount) public {\n        require(_isApprovedOrOwner(_msgSender(), tokenId), \"Caller is not owner nor approved\");\n        require(_tokenBalance[tokenId] >= amount, \"Balance too low\");\n        \n        _tokenBalance[tokenId] -= amount;\n        \n        if(_tokenBalance[tokenId] == 0) {\n            _burn(tokenId);\n        }\n    }\n    \n    \n    function onERC721Received(address, address /*from*/, uint256 /*tokenId*/, bytes memory) public virtual override returns (bytes4) {\n        return this.onERC721Received.selector;\n    }\n    \n}\n",
  "sourcePath": "/home/jan/workspace/token_compositions/contracts/Component.sol",
  "compiler": {
    "name": "solc",
    "version": "0.8.6+commit.11564f7e.Emscripten.clang"
  },
  "schemaVersion": "3.4.4",
  "updatedAt": "2022-01-14T09:55:14.288Z",
  "devdoc": {
    "kind": "dev",
    "methods": {
      "approve(address,uint256)": {
        "details": "See {IERC721-approve}."
      },
      "balanceOf(address)": {
        "details": "See {IERC721-balanceOf}."
      },
      "burn(uint256,uint256)": {
        "details": "Reduce batch by amount",
        "params": {
          "amount": "Amount to burn",
          "tokenId": "Batch ID to use"
        }
      },
      "constructor": {
        "details": "Component constructor",
        "params": {
          "componentName": "Name of component",
          "componentShort": "Abbreviation of component name",
          "ingr": "Array of Ingredients (Pass empty array for basic component)"
        }
      },
      "getApproved(uint256)": {
        "details": "See {IERC721-getApproved}."
      },
      "getTokenBalance(uint256)": {
        "details": "Returns remaining balance of a batch",
        "params": {
          "tokenId": "Batch ID"
        },
        "returns": {
          "_0": "_tokenBalance[tokenId] Remaining balance of batch"
        }
      },
      "isApprovedForAll(address,address)": {
        "details": "See {IERC721-isApprovedForAll}."
      },
      "mintBatch(uint256,(address,uint256)[])": {
        "details": "Mint new batch of components",
        "params": {
          "batchSize": "Size of new batch",
          "batchesToBurn": "Array with addresses & batch IDs of ingredients to burn for batch creation"
        },
        "returns": {
          "_0": "newTokenId TokenID of newly minted batch"
        }
      },
      "name()": {
        "details": "See {IERC721Metadata-name}."
      },
      "ownerOf(uint256)": {
        "details": "See {IERC721-ownerOf}."
      },
      "safeTransferFrom(address,address,uint256)": {
        "details": "See {IERC721-safeTransferFrom}."
      },
      "safeTransferFrom(address,address,uint256,bytes)": {
        "details": "See {IERC721-safeTransferFrom}."
      },
      "setApprovalForAll(address,bool)": {
        "details": "See {IERC721-setApprovalForAll}."
      },
      "supportsInterface(bytes4)": {
        "details": "See {IERC165-supportsInterface}."
      },
      "symbol()": {
        "details": "See {IERC721Metadata-symbol}."
      },
      "tokenURI(uint256)": {
        "details": "See {IERC721Metadata-tokenURI}."
      },
      "transferFrom(address,address,uint256)": {
        "details": "See {IERC721-transferFrom}."
      }
    },
    "title": "Token Compositions Contract ",
    "version": 1
  },
  "userdoc": {
    "kind": "user",
    "methods": {},
    "version": 1
  }
}