{
  "contractName": "EventProof",
  "abi": [
    {
      "inputs": [
        {
          "internalType": "bytes",
          "name": "value",
          "type": "bytes"
        },
        {
          "internalType": "bytes",
          "name": "encodedPath",
          "type": "bytes"
        },
        {
          "internalType": "bytes",
          "name": "rlpParentNodes",
          "type": "bytes"
        },
        {
          "internalType": "bytes32",
          "name": "root",
          "type": "bytes32"
        }
      ],
      "name": "merkleProof",
      "outputs": [
        {
          "internalType": "bool",
          "name": "",
          "type": "bool"
        }
      ],
      "stateMutability": "pure",
      "type": "function"
    },
    {
      "inputs": [
        {
          "internalType": "bytes",
          "name": "rlpEncodedBlock",
          "type": "bytes"
        }
      ],
      "name": "extractReceiptsRoot",
      "outputs": [
        {
          "internalType": "bytes32",
          "name": "receiptsRoot",
          "type": "bytes32"
        }
      ],
      "stateMutability": "pure",
      "type": "function"
    },
    {
      "inputs": [
        {
          "internalType": "bytes32",
          "name": "trustedBlockhash",
          "type": "bytes32"
        },
        {
          "internalType": "bytes",
          "name": "rlpEncodedBlockHeader",
          "type": "bytes"
        },
        {
          "internalType": "bytes",
          "name": "rlpEncodedReceipt",
          "type": "bytes"
        },
        {
          "internalType": "bytes",
          "name": "receiptPath",
          "type": "bytes"
        },
        {
          "internalType": "bytes",
          "name": "receiptWitness",
          "type": "bytes"
        }
      ],
      "name": "proveReceiptInclusion",
      "outputs": [
        {
          "internalType": "bool",
          "name": "",
          "type": "bool"
        }
      ],
      "stateMutability": "pure",
      "type": "function"
    },
    {
      "inputs": [
        {
          "internalType": "bytes[]",
          "name": "rlpEncodedHeaders",
          "type": "bytes[]"
        }
      ],
      "name": "proveBlocks",
      "outputs": [
        {
          "internalType": "bool",
          "name": "",
          "type": "bool"
        }
      ],
      "stateMutability": "pure",
      "type": "function"
    },
    {
      "inputs": [
        {
          "internalType": "bytes",
          "name": "rlpEncodedHeader",
          "type": "bytes"
        }
      ],
      "name": "extractParentHash",
      "outputs": [
        {
          "internalType": "bytes32",
          "name": "parentHash",
          "type": "bytes32"
        }
      ],
      "stateMutability": "pure",
      "type": "function"
    }
  ],
  "bytecode": "0x608060405234801561001057600080fd5b506119f0806100206000396000f3fe608060405234801561001057600080fd5b50600436106100565760003560e01c806268d1751461005b5780637bc4ab6d1461008b5780638f07a9ca146100bb578063e2748443146100eb578063f08c9dc31461011b575b600080fd5b610075600480360381019061007091906110f8565b61014b565b6040516100829190611371565b60405180910390f35b6100a560048036038101906100a0919061122c565b610216565b6040516100b2919061138c565b60405180910390f35b6100d560048036038101906100d09190611275565b610224565b6040516100e29190611371565b60405180910390f35b6101056004803603810190610100919061122c565b61023c565b604051610112919061138c565b60405180910390f35b61013560048036038101906101309190611141565b61024a565b6040516101429190611371565b60405180910390f35b6000806001835161015c91906116dd565b90505b600081111561020c5761018b83828151811061017e5761017d6118e5565b5b602002602001015161023c565b8360018361019991906116dd565b815181106101aa576101a96118e5565b5b602002602001015180519060200120146101f9576040517f08c379a00000000000000000000000000000000000000000000000000000000081526004016101f0906113a7565b60405180910390fd5b808061020490611781565b91505061015f565b5060019050919050565b600060bd8201519050919050565b600061023285858585610289565b9050949350505050565b600060248201519050919050565b6000848051906020012086146102635760009050610280565b600061026e86610216565b905061027c85858584610289565b9150505b95945050505050565b600080610295846105a8565b905060006102a2826105d6565b905060608060008690506000806102b88b6106eb565b90506000815114156102d45760009750505050505050506105a0565b60005b86518110156105975781518311156102fa576000985050505050505050506105a0565b61031d8782815181106103105761030f6118e5565b5b60200260200101516108ee565b95508580519060200120841461033e576000985050505050505050506105a0565b610361878281518110610354576103536118e5565b5b60200260200101516105d6565b94506011855114156104545781518314156103d1578c805190602001206103a286601081518110610395576103946118e5565b5b602002602001015161097e565b8051906020012014156103c0576001985050505050505050506105a0565b6000985050505050505050506105a0565b60008284815181106103e6576103e56118e5565b5b602001015160f81c60f81b60f81c905060108160ff16111561041457600099505050505050505050506105a0565b61043a868260ff168151811061042d5761042c6118e5565b5b6020026020010151610a11565b60001b945060018461044c919061145a565b935050610584565b6002855114156105725761048c61048586600081518110610478576104776118e5565b5b602002602001015161097e565b8385610a6b565b83610497919061145a565b925081518314156104fd578c805190602001206104ce866001815181106104c1576104c06118e5565b5b602002602001015161097e565b8051906020012014156104ec576001985050505050505050506105a0565b6000985050505050505050506105a0565b600061052d61052687600081518110610519576105186118e5565b5b602002602001015161097e565b8486610a6b565b1415610544576000985050505050505050506105a0565b6105688560018151811061055b5761055a6118e5565b5b6020026020010151610a11565b60001b9350610583565b6000985050505050505050506105a0565b5b808061058f906117dc565b9150506102d7565b50505050505050505b949350505050565b6105b0610f9d565b600060208301905060405180604001604052808451815260200182815250915050919050565b60606105e182610b9d565b6105ea57600080fd5b60006105f583610beb565b905060008167ffffffffffffffff81111561061357610612611914565b5b60405190808252806020026020018201604052801561064c57816020015b610639610f9d565b8152602001906001900390816106315790505b509050600061065e8560200151610c79565b856020015161066d919061145a565b9050600080600090505b848110156106de5761068883610d38565b91506040518060400160405280838152602001848152508482815181106106b2576106b16118e5565b5b602002602001018190525081836106c9919061145a565b925080806106d6906117dc565b915050610677565b5082945050505050919050565b6060806000835111156108e557600080610706600086610e14565b60f81c905060018160ff161480610720575060038160ff16145b156107ea576001600286516107359190611683565b61073f91906116dd565b67ffffffffffffffff81111561075857610757611914565b5b6040519080825280601f01601f19166020018201604052801561078a5781602001600182028036833780820191505090505b509250600061079a600187610e14565b905080846000815181106107b1576107b06118e5565b5b60200101907effffffffffffffffffffffffffffffffffffffffffffffffffffffffffffff1916908160001a9053506001925050610856565b60028086516107f99190611683565b61080391906116dd565b67ffffffffffffffff81111561081c5761081b611914565b5b6040519080825280601f01601f19166020018201604052801561084e5781602001600182028036833780820191505090505b509250600091505b60008260ff1690505b83518110156108e15761088c60028460ff168361087c91906116dd565b610886919061145a565b87610e14565b84828151811061089f5761089e6118e5565b5b60200101907effffffffffffffffffffffffffffffffffffffffffffffffffffffffffffff1916908160001a90535080806108d9906117dc565b91505061085f565b5050505b80915050919050565b60606000826000015167ffffffffffffffff8111156109105761090f611914565b5b6040519080825280601f01601f1916602001820160405280156109425781602001600182028036833780820191505090505b5090506000815114156109585780915050610979565b60008160200190506109738460200151828660000151610eac565b81925050505b919050565b6060600082600001511161099157600080fd5b60008061099d84610f53565b9150915060008167ffffffffffffffff8111156109bd576109bc611914565b5b6040519080825280601f01601f1916602001820160405280156109ef5781602001600182028036833780820191505090505b5090506000816020019050610a05848285610eac565b81945050505050919050565b6000808260000151118015610a2b57506021826000015111155b610a3457600080fd5b600080610a4084610f53565b915091506000825190506020821015610a6057816020036101000a810490505b809350505050919050565b6000806000610a79866106eb565b90506000815167ffffffffffffffff811115610a9857610a97611914565b5b6040519080825280601f01601f191660200182016040528015610aca5781602001600182028036833780820191505090505b50905060008590505b825186610ae0919061145a565b811015610b6b576000878281518110610afc57610afb6118e5565b5b602001015160f81c60f81b905080838884610b1791906116dd565b81518110610b2857610b276118e5565b5b60200101907effffffffffffffffffffffffffffffffffffffffffffffffffffffffffffff1916908160001a905350508080610b63906117dc565b915050610ad3565b50808051906020012082805190602001201415610b8b5781519250610b90565b600092505b8293505050509392505050565b60008082600001511415610bb45760009050610be6565b60008083602001519050805160001a915060c060ff168260ff161015610bdf57600092505050610be6565b6001925050505b919050565b60008082600001511415610c025760009050610c74565b600080610c128460200151610c79565b8460200151610c21919061145a565b9050600084600001518560200151610c39919061145a565b90505b80821015610c6d57610c4d82610d38565b82610c58919061145a565b91508280610c65906117dc565b935050610c3c565b8293505050505b919050565b600080825160001a9050608060ff16811015610c99576000915050610d33565b60b860ff16811080610cbe575060c060ff168110158015610cbd575060f860ff1681105b5b15610ccd576001915050610d33565b60c060ff16811015610d085760018060b8610ce89190611711565b60ff1682610cf691906116dd565b610d00919061145a565b915050610d33565b60018060f8610d179190611711565b60ff1682610d2591906116dd565b610d2f919061145a565b9150505b919050565b6000806000835160001a9050608060ff16811015610d595760019150610e0a565b60b860ff16811015610d88576001608060ff1682610d7791906116dd565b610d81919061145a565b9150610e09565b60c060ff16811015610db85760b78103600185019450806020036101000a85510460018201810193505050610e08565b60f860ff16811015610de757600160c060ff1682610dd691906116dd565b610de0919061145a565b9150610e07565b60f78103600185019450806020036101000a855104600182018101935050505b5b5b5b8192505050919050565b600080600284610e249190611825565b14610e6757601082600285610e3991906114b0565b81518110610e4a57610e496118e5565b5b602001015160f81c60f81b60f81c610e629190611856565b610ea1565b601082600285610e7791906114b0565b81518110610e8857610e876118e5565b5b602001015160f81c60f81b60f81c610ea091906114e1565b5b60f81b905092915050565b6000811415610eba57610f4e565b5b602060ff168110610f055782518252602060ff1683610eda919061145a565b9250602060ff1682610eec919061145a565b9150602060ff1681610efe91906116dd565b9050610ebb565b6000811115610f4d576000600182602060ff16610f2291906116dd565b610100610f2f9190611565565b610f3991906116dd565b905080198451168184511681811785525050505b5b505050565b6000806000610f658460200151610c79565b90506000818560200151610f79919061145a565b90506000828660000151610f8d91906116dd565b9050818194509450505050915091565b604051806040016040528060008152602001600081525090565b6000610fca610fc5846113ec565b6113c7565b90508083825260208201905082856020860282011115610fed57610fec611948565b5b60005b8581101561103b57813567ffffffffffffffff81111561101357611012611943565b5b80860161102089826110ca565b85526020850194506020840193505050600181019050610ff0565b5050509392505050565b600061105861105384611418565b6113c7565b9050828152602081018484840111156110745761107361194d565b5b61107f848285611772565b509392505050565b600082601f83011261109c5761109b611943565b5b81356110ac848260208601610fb7565b91505092915050565b6000813590506110c4816119a3565b92915050565b600082601f8301126110df576110de611943565b5b81356110ef848260208601611045565b91505092915050565b60006020828403121561110e5761110d611957565b5b600082013567ffffffffffffffff81111561112c5761112b611952565b5b61113884828501611087565b91505092915050565b600080600080600060a0868803121561115d5761115c611957565b5b600061116b888289016110b5565b955050602086013567ffffffffffffffff81111561118c5761118b611952565b5b611198888289016110ca565b945050604086013567ffffffffffffffff8111156111b9576111b8611952565b5b6111c5888289016110ca565b935050606086013567ffffffffffffffff8111156111e6576111e5611952565b5b6111f2888289016110ca565b925050608086013567ffffffffffffffff81111561121357611212611952565b5b61121f888289016110ca565b9150509295509295909350565b60006020828403121561124257611241611957565b5b600082013567ffffffffffffffff8111156112605761125f611952565b5b61126c848285016110ca565b91505092915050565b6000806000806080858703121561128f5761128e611957565b5b600085013567ffffffffffffffff8111156112ad576112ac611952565b5b6112b9878288016110ca565b945050602085013567ffffffffffffffff8111156112da576112d9611952565b5b6112e6878288016110ca565b935050604085013567ffffffffffffffff81111561130757611306611952565b5b611313878288016110ca565b9250506060611324878288016110b5565b91505092959194509250565b61133981611745565b82525050565b61134881611751565b82525050565b600061135b601683611449565b91506113668261197a565b602082019050919050565b60006020820190506113866000830184611330565b92915050565b60006020820190506113a1600083018461133f565b92915050565b600060208201905081810360008301526113c08161134e565b9050919050565b60006113d16113e2565b90506113dd82826117ab565b919050565b6000604051905090565b600067ffffffffffffffff82111561140757611406611914565b5b602082029050602081019050919050565b600067ffffffffffffffff82111561143357611432611914565b5b61143c8261195c565b9050602081019050919050565b600082825260208201905092915050565b60006114658261175b565b91506114708361175b565b9250827fffffffffffffffffffffffffffffffffffffffffffffffffffffffffffffffff038211156114a5576114a4611887565b5b828201905092915050565b60006114bb8261175b565b91506114c68361175b565b9250826114d6576114d56118b6565b5b828204905092915050565b60006114ec82611765565b91506114f783611765565b925082611507576115066118b6565b5b828204905092915050565b6000808291508390505b600185111561155c5780860481111561153857611537611887565b5b60018516156115475780820291505b80810290506115558561196d565b945061151c565b94509492505050565b60006115708261175b565b915061157b8361175b565b92506115a87fffffffffffffffffffffffffffffffffffffffffffffffffffffffffffffffff84846115b0565b905092915050565b6000826115c0576001905061167c565b816115ce576000905061167c565b81600181146115e457600281146115ee5761161d565b600191505061167c565b60ff841115611600576115ff611887565b5b8360020a91508482111561161757611616611887565b5b5061167c565b5060208310610133831016604e8410600b84101617156116525782820a90508381111561164d5761164c611887565b5b61167c565b61165f8484846001611512565b9250905081840481111561167657611675611887565b5b81810290505b9392505050565b600061168e8261175b565b91506116998361175b565b9250817fffffffffffffffffffffffffffffffffffffffffffffffffffffffffffffffff04831182151516156116d2576116d1611887565b5b828202905092915050565b60006116e88261175b565b91506116f38361175b565b92508282101561170657611705611887565b5b828203905092915050565b600061171c82611765565b915061172783611765565b92508282101561173a57611739611887565b5b828203905092915050565b60008115159050919050565b6000819050919050565b6000819050919050565b600060ff82169050919050565b82818337600083830152505050565b600061178c8261175b565b915060008214156117a05761179f611887565b5b600182039050919050565b6117b48261195c565b810181811067ffffffffffffffff821117156117d3576117d2611914565b5b80604052505050565b60006117e78261175b565b91507fffffffffffffffffffffffffffffffffffffffffffffffffffffffffffffffff82141561181a57611819611887565b5b600182019050919050565b60006118308261175b565b915061183b8361175b565b92508261184b5761184a6118b6565b5b828206905092915050565b600061186182611765565b915061186c83611765565b92508261187c5761187b6118b6565b5b828206905092915050565b7f4e487b7100000000000000000000000000000000000000000000000000000000600052601160045260246000fd5b7f4e487b7100000000000000000000000000000000000000000000000000000000600052601260045260246000fd5b7f4e487b7100000000000000000000000000000000000000000000000000000000600052603260045260246000fd5b7f4e487b7100000000000000000000000000000000000000000000000000000000600052604160045260246000fd5b600080fd5b600080fd5b600080fd5b600080fd5b600080fd5b6000601f19601f8301169050919050565b60008160011c9050919050565b7f496e636f727265637420706172656e7420686173682e00000000000000000000600082015250565b6119ac81611751565b81146119b757600080fd5b5056fea2646970667358221220f57f6646e7c291a0674da33671e0dec2e4718803895e61169ce898c06af3125964736f6c63430008060033",
  "immutableReferences": {},
  "source": "// taken from https://github.com/PISAresearch/event-proofs/blob/master/contracts/EventProof.sol\npragma solidity ^0.8.0;\npragma experimental ABIEncoderV2;\nimport \"./PatriciaTree.sol\";\n\n\ncontract EventProof {\n    // just a public method to test the merkle patricia proof\n    function merkleProof(\n        bytes memory value,\n        bytes memory encodedPath,\n        bytes memory rlpParentNodes,\n        bytes32 root\n    ) public pure returns(bool) {\n        return MerklePatriciaProof.verify(\n            value, encodedPath, rlpParentNodes, root\n        );\n    }\n\n    /**\n     * Extracts the receipts root from an rlp encoded block.\n     */\n    function extractReceiptsRoot(\n        bytes memory rlpEncodedBlock\n    ) public pure returns (bytes32 receiptsRoot) {\n        // Adapted from:\n        // https://github.com/figs999/Ethereum/blob/master/EventStorage.sol\n        // where copyCallData is used:\n        // assembly {\n        //     calldatacopy(add(receiptsRoot,0), 257, 32)  //receiptRoot\n        // }\n\n        assembly {\n            // rlp encoded position of receipts root is 189\n            receiptsRoot := mload(add(rlpEncodedBlock, 189))\n        }\n    }\n\n    /**\n     * Proves a header matches the a trusted block hash, and that that header\n     * contains a receipts root which itself contains a provided receipt.\n     */\n    function proveReceiptInclusion(\n        bytes32 trustedBlockhash,\n        bytes memory rlpEncodedBlockHeader,\n        bytes memory rlpEncodedReceipt,\n        bytes memory receiptPath,\n        bytes memory receiptWitness\n    ) public pure returns(bool) {\n        if(trustedBlockhash != keccak256(rlpEncodedBlockHeader)) return false;\n\n        // extract the receipts from the verified blcok header\n        bytes32 receiptsRoot = extractReceiptsRoot(rlpEncodedBlockHeader);\n\n        // use the root to prove inclusion of the receipt\n        return MerklePatriciaProof.verify(rlpEncodedReceipt, receiptPath, receiptWitness, receiptsRoot);\n    }\n\n    function proveBlocks(\n        bytes[] memory rlpEncodedHeaders\n    ) public pure returns(bool) {\n        for(uint index = rlpEncodedHeaders.length - 1; index > 0; index--){\n            require(\n                keccak256(rlpEncodedHeaders[index - 1]) == extractParentHash(rlpEncodedHeaders[index]),\n                \"Incorrect parent hash.\"\n            );\n        }\n        return true;\n    }\n\n    function extractParentHash(\n        bytes memory rlpEncodedHeader\n    ) public pure returns(bytes32 parentHash) {\n        assembly {\n            // rlp encoded position of parent hash is 36\n            parentHash := mload(add(rlpEncodedHeader, 36))\n        }\n    }\n}\n\n",
  "sourcePath": "/home/jan/workspace/token_compositions/contracts/EventProof.sol",
  "compiler": {
    "name": "solc",
    "version": "0.8.6+commit.11564f7e.Emscripten.clang"
  },
  "schemaVersion": "3.4.4",
  "updatedAt": "2022-01-14T09:55:14.332Z",
  "devdoc": {
    "kind": "dev",
    "methods": {},
    "version": 1
  },
  "userdoc": {
    "kind": "user",
    "methods": {
      "extractReceiptsRoot(bytes)": {
        "notice": "Extracts the receipts root from an rlp encoded block."
      },
      "proveReceiptInclusion(bytes32,bytes,bytes,bytes,bytes)": {
        "notice": "Proves a header matches the a trusted block hash, and that that header contains a receipts root which itself contains a provided receipt."
      }
    },
    "version": 1
  }
}