{
  "contractName": "WrappingContract",
  "abi": [
    {
      "inputs": [],
      "stateMutability": "nonpayable",
      "type": "constructor"
    },
    {
      "anonymous": false,
      "inputs": [
        {
          "indexed": false,
          "internalType": "address",
          "name": "to",
          "type": "address"
        },
        {
          "indexed": false,
          "internalType": "address",
          "name": "tokenContract",
          "type": "address"
        },
        {
          "indexed": false,
          "internalType": "uint256",
          "name": "tokenId",
          "type": "uint256"
        }
      ],
      "name": "locked",
      "type": "event"
    },
    {
      "inputs": [
        {
          "internalType": "address",
          "name": "to",
          "type": "address"
        },
        {
          "internalType": "address",
          "name": "tokenContract",
          "type": "address"
        },
        {
          "internalType": "uint256",
          "name": "tokenId",
          "type": "uint256"
        }
      ],
      "name": "lock",
      "outputs": [],
      "stateMutability": "nonpayable",
      "type": "function"
    },
    {
      "inputs": [
        {
          "internalType": "address",
          "name": "",
          "type": "address"
        },
        {
          "internalType": "address",
          "name": "",
          "type": "address"
        },
        {
          "internalType": "uint256",
          "name": "",
          "type": "uint256"
        },
        {
          "internalType": "bytes",
          "name": "",
          "type": "bytes"
        }
      ],
      "name": "onERC721Received",
      "outputs": [
        {
          "internalType": "bytes4",
          "name": "",
          "type": "bytes4"
        }
      ],
      "stateMutability": "nonpayable",
      "type": "function"
    }
  ],
  "bytecode": "0x608060405234801561001057600080fd5b50336000806101000a81548173ffffffffffffffffffffffffffffffffffffffff021916908373ffffffffffffffffffffffffffffffffffffffff1602179055506107f1806100606000396000f3fe608060405234801561001057600080fd5b50600436106100365760003560e01c8063150b7a021461003b5780637750c9f01461006b575b600080fd5b6100556004803603810190610050919061051e565b610087565b6040516100629190610605565b60405180910390f35b610085600480360381019061008091906104cb565b61009b565b005b600063150b7a0260e01b9050949350505050565b60008290508073ffffffffffffffffffffffffffffffffffffffff16636352211e836040518263ffffffff1660e01b81526004016100d99190610620565b60206040518083038186803b1580156100f157600080fd5b505afa158015610105573d6000803e3d6000fd5b505050506040513d601f19601f82011682018060405250810190610129919061049e565b73ffffffffffffffffffffffffffffffffffffffff163373ffffffffffffffffffffffffffffffffffffffff161461016057600080fd5b3073ffffffffffffffffffffffffffffffffffffffff168173ffffffffffffffffffffffffffffffffffffffff1663081812fc846040518263ffffffff1660e01b81526004016101b09190610620565b60206040518083038186803b1580156101c857600080fd5b505afa1580156101dc573d6000803e3d6000fd5b505050506040513d601f19601f82011682018060405250810190610200919061049e565b73ffffffffffffffffffffffffffffffffffffffff161461022057600080fd5b8073ffffffffffffffffffffffffffffffffffffffff166342842e0e3330856040518463ffffffff1660e01b815260040161025d939291906105ce565b600060405180830381600087803b15801561027757600080fd5b505af115801561028b573d6000803e3d6000fd5b5050505061029a8484846102a0565b50505050565b6102a86103bf565b82816000019073ffffffffffffffffffffffffffffffffffffffff16908173ffffffffffffffffffffffffffffffffffffffff16815250508181602001818152505080600160008673ffffffffffffffffffffffffffffffffffffffff1673ffffffffffffffffffffffffffffffffffffffff16815260200190815260200160002060008201518160000160006101000a81548173ffffffffffffffffffffffffffffffffffffffff021916908373ffffffffffffffffffffffffffffffffffffffff160217905550602082015181600101559050507fae5a3bcd337f3cda0da0cf7b4e32500a5bedb6cb2731aafb37805e50026b8bc48484846040516103b1939291906105ce565b60405180910390a150505050565b6040518060400160405280600073ffffffffffffffffffffffffffffffffffffffff168152602001600081525090565b60006104026103fd84610660565b61063b565b90508281526020810184848401111561041e5761041d61076d565b5b6104298482856106f9565b509392505050565b6000813590506104408161078d565b92915050565b6000815190506104558161078d565b92915050565b600082601f8301126104705761046f610768565b5b81356104808482602086016103ef565b91505092915050565b600081359050610498816107a4565b92915050565b6000602082840312156104b4576104b3610777565b5b60006104c284828501610446565b91505092915050565b6000806000606084860312156104e4576104e3610777565b5b60006104f286828701610431565b935050602061050386828701610431565b925050604061051486828701610489565b9150509250925092565b6000806000806080858703121561053857610537610777565b5b600061054687828801610431565b945050602061055787828801610431565b935050604061056887828801610489565b925050606085013567ffffffffffffffff81111561058957610588610772565b5b6105958782880161045b565b91505092959194509250565b6105aa81610691565b82525050565b6105b9816106a3565b82525050565b6105c8816106ef565b82525050565b60006060820190506105e360008301866105a1565b6105f060208301856105a1565b6105fd60408301846105bf565b949350505050565b600060208201905061061a60008301846105b0565b92915050565b600060208201905061063560008301846105bf565b92915050565b6000610645610656565b90506106518282610708565b919050565b6000604051905090565b600067ffffffffffffffff82111561067b5761067a610739565b5b6106848261077c565b9050602081019050919050565b600061069c826106cf565b9050919050565b60007fffffffff0000000000000000000000000000000000000000000000000000000082169050919050565b600073ffffffffffffffffffffffffffffffffffffffff82169050919050565b6000819050919050565b82818337600083830152505050565b6107118261077c565b810181811067ffffffffffffffff821117156107305761072f610739565b5b80604052505050565b7f4e487b7100000000000000000000000000000000000000000000000000000000600052604160045260246000fd5b600080fd5b600080fd5b600080fd5b600080fd5b6000601f19601f8301169050919050565b61079681610691565b81146107a157600080fd5b50565b6107ad816106ef565b81146107b857600080fd5b5056fea26469706673582212201e2efcf082f148860365120cad1df6da5b5ccf5d50e0ddf0e34720f8045cf3fa64736f6c63430008060033",
  "immutableReferences": {},
  "source": "// SPDX-License-Identifier: MIT\npragma solidity ^0.8.0;\nimport \"openzeppelin-solidity/contracts/token/ERC721/IERC721Receiver.sol\";\nimport \"openzeppelin-solidity/contracts/token/ERC721/ERC721.sol\";\nimport \"../contracts/Component.sol\";\n\n\nstruct Token {\n    address tContract;\n    uint256 tId;\n}\n\ncontract WrappingContract is IERC721Receiver {\n\n    address internal _owner;\n\n    mapping (address => Token) lockedTokens;\n    event locked(address to, address tokenContract, uint256 tokenId);\n\n    modifier isOwner() {\n        require(msg.sender == _owner, \"Access denied\");\n        _;\n    }\n\n    constructor() {\n        _owner = msg.sender;\n    }\n\n    function lock(address to, address tokenContract, uint256 tokenId) public {\n        ERC721 c = ERC721(tokenContract);\n\n        // require msg.sender owns token\n        require(msg.sender == c.ownerOf(tokenId));\n\n        // require preceding approval for wrapping contract\n        require(c.getApproved(tokenId) == address(this));\n\n        // \"take ownership\" (send token to self)\n        c.safeTransferFrom(msg.sender, address(this), tokenId);\n\n        // lock token to address\n        lockToken(to, tokenContract, tokenId);\n\n    }\n\n    function lockToken(address to, address tokenContract, uint256 tokenId) internal {\n        Token memory t;\n        t.tContract = tokenContract;\n        t.tId = tokenId;\n\n        lockedTokens[to] = t;\n        emit locked(to, tokenContract, tokenId);\n    }\n\n    function onERC721Received(address /*operator*/, address /*from*/, uint256 /*tokenId*/, bytes memory) public virtual override returns (bytes4) {\n        /*\n        Batch memory b;\n        b.adr = from;\n        b.tId = tokenId;\n\n        lockToken(operator, b);\n        */\n\n        return this.onERC721Received.selector;\n    }\n}\n",
  "sourcePath": "/home/jan/workspace/token_compositions/contracts/WrappingContract.sol",
  "compiler": {
    "name": "solc",
    "version": "0.8.6+commit.11564f7e.Emscripten.clang"
  },
  "schemaVersion": "3.4.4",
  "updatedAt": "2022-01-14T09:55:14.439Z",
  "devdoc": {
    "kind": "dev",
    "methods": {},
    "version": 1
  },
  "userdoc": {
    "kind": "user",
    "methods": {},
    "version": 1
  }
}