{
  "contractName": "WrappingContract",
  "abi": [
    {
      "inputs": [],
      "stateMutability": "nonpayable",
      "type": "constructor"
    },
    {
      "anonymous": false,
      "inputs": [
        {
          "indexed": false,
          "internalType": "address",
          "name": "to",
          "type": "address"
        },
        {
          "indexed": false,
          "internalType": "address",
          "name": "tokenContract",
          "type": "address"
        },
        {
          "indexed": false,
          "internalType": "uint256",
          "name": "tokenId",
          "type": "uint256"
        }
      ],
      "name": "locked",
      "type": "event"
    },
    {
      "inputs": [
        {
          "internalType": "address",
          "name": "to",
          "type": "address"
        },
        {
          "internalType": "address",
          "name": "tokenContract",
          "type": "address"
        },
        {
          "internalType": "uint256",
          "name": "tokenId",
          "type": "uint256"
        }
      ],
      "name": "lock",
      "outputs": [],
      "stateMutability": "nonpayable",
      "type": "function"
    },
    {
      "inputs": [
        {
          "internalType": "bytes32",
          "name": "token",
          "type": "bytes32"
        }
      ],
      "name": "getLockedTokenAddress",
      "outputs": [
        {
          "internalType": "address",
          "name": "",
          "type": "address"
        }
      ],
      "stateMutability": "view",
      "type": "function"
    },
    {
      "inputs": [
        {
          "internalType": "address",
          "name": "",
          "type": "address"
        },
        {
          "internalType": "address",
          "name": "",
          "type": "address"
        },
        {
          "internalType": "uint256",
          "name": "",
          "type": "uint256"
        },
        {
          "internalType": "bytes",
          "name": "",
          "type": "bytes"
        }
      ],
      "name": "onERC721Received",
      "outputs": [
        {
          "internalType": "bytes4",
          "name": "",
          "type": "bytes4"
        }
      ],
      "stateMutability": "nonpayable",
      "type": "function"
    }
  ],
  "bytecode": "0x608060405234801561001057600080fd5b50336000806101000a81548173ffffffffffffffffffffffffffffffffffffffff021916908373ffffffffffffffffffffffffffffffffffffffff1602179055506108ed806100606000396000f3fe608060405234801561001057600080fd5b50600436106100415760003560e01c8063150b7a02146100465780637750c9f014610076578063fc22731814610092575b600080fd5b610060600480360381019061005b919061051c565b6100c2565b60405161006d91906106a5565b60405180910390f35b610090600480360381019061008b91906104c9565b6100d6565b005b6100ac60048036038101906100a7919061059f565b6102db565b6040516100b99190610653565b60405180910390f35b600063150b7a0260e01b9050949350505050565b60008290508073ffffffffffffffffffffffffffffffffffffffff16636352211e836040518263ffffffff1660e01b815260040161011491906106c0565b60206040518083038186803b15801561012c57600080fd5b505afa158015610140573d6000803e3d6000fd5b505050506040513d601f19601f82011682018060405250810190610164919061049c565b73ffffffffffffffffffffffffffffffffffffffff163373ffffffffffffffffffffffffffffffffffffffff161461019b57600080fd5b3073ffffffffffffffffffffffffffffffffffffffff168173ffffffffffffffffffffffffffffffffffffffff1663081812fc846040518263ffffffff1660e01b81526004016101eb91906106c0565b60206040518083038186803b15801561020357600080fd5b505afa158015610217573d6000803e3d6000fd5b505050506040513d601f19601f8201168201806040525081019061023b919061049c565b73ffffffffffffffffffffffffffffffffffffffff161461025b57600080fd5b8073ffffffffffffffffffffffffffffffffffffffff166342842e0e3330856040518463ffffffff1660e01b81526004016102989392919061066e565b600060405180830381600087803b1580156102b257600080fd5b505af11580156102c6573d6000803e3d6000fd5b505050506102d5848484610318565b50505050565b60006001600083815260200190815260200160002060009054906101000a900473ffffffffffffffffffffffffffffffffffffffff169050919050565b6000828260405160200161032d929190610627565b604051602081830303815290604052805190602001209050836001600083815260200190815260200160002060006101000a81548173ffffffffffffffffffffffffffffffffffffffff021916908373ffffffffffffffffffffffffffffffffffffffff1602179055507fae5a3bcd337f3cda0da0cf7b4e32500a5bedb6cb2731aafb37805e50026b8bc48484846040516103ca9392919061066e565b60405180910390a150505050565b60006103eb6103e684610700565b6106db565b90508281526020810184848401111561040757610406610845565b5b6104128482856107a3565b509392505050565b60008135905061042981610872565b92915050565b60008151905061043e81610872565b92915050565b60008135905061045381610889565b92915050565b600082601f83011261046e5761046d610840565b5b813561047e8482602086016103d8565b91505092915050565b600081359050610496816108a0565b92915050565b6000602082840312156104b2576104b161084f565b5b60006104c08482850161042f565b91505092915050565b6000806000606084860312156104e2576104e161084f565b5b60006104f08682870161041a565b93505060206105018682870161041a565b925050604061051286828701610487565b9150509250925092565b600080600080608085870312156105365761053561084f565b5b60006105448782880161041a565b94505060206105558782880161041a565b935050604061056687828801610487565b925050606085013567ffffffffffffffff8111156105875761058661084a565b5b61059387828801610459565b91505092959194509250565b6000602082840312156105b5576105b461084f565b5b60006105c384828501610444565b91505092915050565b6105d581610731565b82525050565b6105ec6105e782610731565b6107e3565b82525050565b6105fb8161074d565b82525050565b61060a81610799565b82525050565b61062161061c82610799565b610807565b82525050565b600061063382856105db565b6014820191506106438284610610565b6020820191508190509392505050565b600060208201905061066860008301846105cc565b92915050565b600060608201905061068360008301866105cc565b61069060208301856105cc565b61069d6040830184610601565b949350505050565b60006020820190506106ba60008301846105f2565b92915050565b60006020820190506106d56000830184610601565b92915050565b60006106e56106f6565b90506106f182826107b2565b919050565b6000604051905090565b600067ffffffffffffffff82111561071b5761071a610811565b5b61072482610854565b9050602081019050919050565b600061073c82610779565b9050919050565b6000819050919050565b60007fffffffff0000000000000000000000000000000000000000000000000000000082169050919050565b600073ffffffffffffffffffffffffffffffffffffffff82169050919050565b6000819050919050565b82818337600083830152505050565b6107bb82610854565b810181811067ffffffffffffffff821117156107da576107d9610811565b5b80604052505050565b60006107ee826107f5565b9050919050565b600061080082610865565b9050919050565b6000819050919050565b7f4e487b7100000000000000000000000000000000000000000000000000000000600052604160045260246000fd5b600080fd5b600080fd5b600080fd5b600080fd5b6000601f19601f8301169050919050565b60008160601b9050919050565b61087b81610731565b811461088657600080fd5b50565b61089281610743565b811461089d57600080fd5b50565b6108a981610799565b81146108b457600080fd5b5056fea2646970667358221220e07c1c0d75cc8e44304a659d52a6be498c110abaee93e402d7a0effbce7a9ca164736f6c63430008060033",
  "immutableReferences": {},
  "source": "// SPDX-License-Identifier: MIT\npragma solidity ^0.8.0;\nimport \"openzeppelin-solidity/contracts/token/ERC721/IERC721Receiver.sol\";\nimport \"openzeppelin-solidity/contracts/token/ERC721/ERC721.sol\";\nimport \"../contracts/Component.sol\";\n\n\ncontract WrappingContract is IERC721Receiver {\n\n    address internal _owner;\n\n    mapping (bytes32 => address) lockedTokens;\n    event locked(address to, address tokenContract, uint256 tokenId);\n\n    modifier isOwner() {\n        require(msg.sender == _owner, \"Access denied\");\n        _;\n    }\n\n    constructor() {\n        _owner = msg.sender;\n    }\n\n    function lock(address to, address tokenContract, uint256 tokenId) public {\n        ERC721 c = ERC721(tokenContract);\n\n        // require msg.sender owns token\n        require(msg.sender == c.ownerOf(tokenId));\n\n        // require preceding approval for wrapping contract\n        require(c.getApproved(tokenId) == address(this));\n\n        // \"take ownership\" (send token to self)\n        c.safeTransferFrom(msg.sender, address(this), tokenId);\n\n        // lock token to address\n        lockToken(to, tokenContract, tokenId);\n\n    }\n\n    function lockToken(address to, address tokenContract, uint256 tokenId) internal {\n        bytes32 token = keccak256(abi.encodePacked(tokenContract, tokenId));\n\n        lockedTokens[token] = to;\n        emit locked(to, tokenContract, tokenId);\n    }\n\n    function getLockedTokenAddress(bytes32 token) public view returns (address) {\n        return lockedTokens[token];\n    }\n\n    function onERC721Received(address /*operator*/, address /*from*/, uint256 /*tokenId*/, bytes memory) public virtual override returns (bytes4) {\n        /*\n        Batch memory b;\n        b.adr = from;\n        b.tId = tokenId;\n\n        lockToken(operator, b);\n        */\n\n        return this.onERC721Received.selector;\n    }\n}\n",
  "sourcePath": "/home/jan/workspace/token_compositions/contracts/WrappingContract.sol",
  "compiler": {
    "name": "solc",
    "version": "0.8.6+commit.11564f7e.Emscripten.clang"
  },
  "schemaVersion": "3.4.4",
  "updatedAt": "2022-01-16T22:00:59.310Z",
  "devdoc": {
    "kind": "dev",
    "methods": {},
    "version": 1
  },
  "userdoc": {
    "kind": "user",
    "methods": {},
    "version": 1
  }
}