{
  "contractName": "WrappedToken",
  "abi": [
    {
      "inputs": [
        {
          "internalType": "string",
          "name": "componentName",
          "type": "string"
        },
        {
          "internalType": "string",
          "name": "componentShort",
          "type": "string"
        },
        {
          "internalType": "address",
          "name": "chainRelayAdr",
          "type": "address"
        }
      ],
      "stateMutability": "nonpayable",
      "type": "constructor"
    },
    {
      "anonymous": false,
      "inputs": [
        {
          "indexed": true,
          "internalType": "address",
          "name": "owner",
          "type": "address"
        },
        {
          "indexed": true,
          "internalType": "address",
          "name": "approved",
          "type": "address"
        },
        {
          "indexed": true,
          "internalType": "uint256",
          "name": "tokenId",
          "type": "uint256"
        }
      ],
      "name": "Approval",
      "type": "event"
    },
    {
      "anonymous": false,
      "inputs": [
        {
          "indexed": true,
          "internalType": "address",
          "name": "owner",
          "type": "address"
        },
        {
          "indexed": true,
          "internalType": "address",
          "name": "operator",
          "type": "address"
        },
        {
          "indexed": false,
          "internalType": "bool",
          "name": "approved",
          "type": "bool"
        }
      ],
      "name": "ApprovalForAll",
      "type": "event"
    },
    {
      "anonymous": false,
      "inputs": [
        {
          "indexed": true,
          "internalType": "address",
          "name": "from",
          "type": "address"
        },
        {
          "indexed": true,
          "internalType": "address",
          "name": "to",
          "type": "address"
        },
        {
          "indexed": true,
          "internalType": "uint256",
          "name": "tokenId",
          "type": "uint256"
        }
      ],
      "name": "Transfer",
      "type": "event"
    },
    {
      "inputs": [
        {
          "internalType": "address",
          "name": "to",
          "type": "address"
        },
        {
          "internalType": "uint256",
          "name": "tokenId",
          "type": "uint256"
        }
      ],
      "name": "approve",
      "outputs": [],
      "stateMutability": "nonpayable",
      "type": "function"
    },
    {
      "inputs": [
        {
          "internalType": "address",
          "name": "owner",
          "type": "address"
        }
      ],
      "name": "balanceOf",
      "outputs": [
        {
          "internalType": "uint256",
          "name": "",
          "type": "uint256"
        }
      ],
      "stateMutability": "view",
      "type": "function"
    },
    {
      "inputs": [
        {
          "internalType": "uint256",
          "name": "tokenId",
          "type": "uint256"
        }
      ],
      "name": "getApproved",
      "outputs": [
        {
          "internalType": "address",
          "name": "",
          "type": "address"
        }
      ],
      "stateMutability": "view",
      "type": "function"
    },
    {
      "inputs": [
        {
          "internalType": "address",
          "name": "owner",
          "type": "address"
        },
        {
          "internalType": "address",
          "name": "operator",
          "type": "address"
        }
      ],
      "name": "isApprovedForAll",
      "outputs": [
        {
          "internalType": "bool",
          "name": "",
          "type": "bool"
        }
      ],
      "stateMutability": "view",
      "type": "function"
    },
    {
      "inputs": [],
      "name": "name",
      "outputs": [
        {
          "internalType": "string",
          "name": "",
          "type": "string"
        }
      ],
      "stateMutability": "view",
      "type": "function"
    },
    {
      "inputs": [
        {
          "internalType": "uint256",
          "name": "tokenId",
          "type": "uint256"
        }
      ],
      "name": "ownerOf",
      "outputs": [
        {
          "internalType": "address",
          "name": "",
          "type": "address"
        }
      ],
      "stateMutability": "view",
      "type": "function"
    },
    {
      "inputs": [
        {
          "internalType": "address",
          "name": "from",
          "type": "address"
        },
        {
          "internalType": "address",
          "name": "to",
          "type": "address"
        },
        {
          "internalType": "uint256",
          "name": "tokenId",
          "type": "uint256"
        }
      ],
      "name": "safeTransferFrom",
      "outputs": [],
      "stateMutability": "nonpayable",
      "type": "function"
    },
    {
      "inputs": [
        {
          "internalType": "address",
          "name": "from",
          "type": "address"
        },
        {
          "internalType": "address",
          "name": "to",
          "type": "address"
        },
        {
          "internalType": "uint256",
          "name": "tokenId",
          "type": "uint256"
        },
        {
          "internalType": "bytes",
          "name": "_data",
          "type": "bytes"
        }
      ],
      "name": "safeTransferFrom",
      "outputs": [],
      "stateMutability": "nonpayable",
      "type": "function"
    },
    {
      "inputs": [
        {
          "internalType": "address",
          "name": "operator",
          "type": "address"
        },
        {
          "internalType": "bool",
          "name": "approved",
          "type": "bool"
        }
      ],
      "name": "setApprovalForAll",
      "outputs": [],
      "stateMutability": "nonpayable",
      "type": "function"
    },
    {
      "inputs": [
        {
          "internalType": "bytes4",
          "name": "interfaceId",
          "type": "bytes4"
        }
      ],
      "name": "supportsInterface",
      "outputs": [
        {
          "internalType": "bool",
          "name": "",
          "type": "bool"
        }
      ],
      "stateMutability": "view",
      "type": "function"
    },
    {
      "inputs": [],
      "name": "symbol",
      "outputs": [
        {
          "internalType": "string",
          "name": "",
          "type": "string"
        }
      ],
      "stateMutability": "view",
      "type": "function"
    },
    {
      "inputs": [
        {
          "internalType": "uint256",
          "name": "tokenId",
          "type": "uint256"
        }
      ],
      "name": "tokenURI",
      "outputs": [
        {
          "internalType": "string",
          "name": "",
          "type": "string"
        }
      ],
      "stateMutability": "view",
      "type": "function"
    },
    {
      "inputs": [
        {
          "internalType": "address",
          "name": "from",
          "type": "address"
        },
        {
          "internalType": "address",
          "name": "to",
          "type": "address"
        },
        {
          "internalType": "uint256",
          "name": "tokenId",
          "type": "uint256"
        }
      ],
      "name": "transferFrom",
      "outputs": [],
      "stateMutability": "nonpayable",
      "type": "function"
    },
    {
      "inputs": [
        {
          "internalType": "uint256",
          "name": "blockNo",
          "type": "uint256"
        },
        {
          "internalType": "bytes",
          "name": "merkleProof",
          "type": "bytes"
        }
      ],
      "name": "mintWrappedToken",
      "outputs": [
        {
          "internalType": "uint256",
          "name": "",
          "type": "uint256"
        }
      ],
      "stateMutability": "nonpayable",
      "type": "function"
    }
  ],
  "bytecode": "0x60806040523480156200001157600080fd5b5060405162002f1038038062002f1083398181016040528101906200003791906200023d565b8282816000908051906020019062000051929190620000f8565b5080600190805190602001906200006a929190620000f8565b50505033600660006101000a81548173ffffffffffffffffffffffffffffffffffffffff021916908373ffffffffffffffffffffffffffffffffffffffff16021790555080600760006101000a81548173ffffffffffffffffffffffffffffffffffffffff021916908373ffffffffffffffffffffffffffffffffffffffff160217905550505050620004a9565b8280546200010690620003a0565b90600052602060002090601f0160209004810192826200012a576000855562000176565b82601f106200014557805160ff191683800117855562000176565b8280016001018555821562000176579182015b828111156200017557825182559160200191906001019062000158565b5b50905062000185919062000189565b5090565b5b80821115620001a45760008160009055506001016200018a565b5090565b6000620001bf620001b98462000300565b620002d7565b905082815260208101848484011115620001de57620001dd6200046f565b5b620001eb8482856200036a565b509392505050565b60008151905062000204816200048f565b92915050565b600082601f8301126200022257620002216200046a565b5b815162000234848260208601620001a8565b91505092915050565b60008060006060848603121562000259576200025862000479565b5b600084015167ffffffffffffffff8111156200027a576200027962000474565b5b62000288868287016200020a565b935050602084015167ffffffffffffffff811115620002ac57620002ab62000474565b5b620002ba868287016200020a565b9250506040620002cd86828701620001f3565b9150509250925092565b6000620002e3620002f6565b9050620002f18282620003d6565b919050565b6000604051905090565b600067ffffffffffffffff8211156200031e576200031d6200043b565b5b62000329826200047e565b9050602081019050919050565b600062000343826200034a565b9050919050565b600073ffffffffffffffffffffffffffffffffffffffff82169050919050565b60005b838110156200038a5780820151818401526020810190506200036d565b838111156200039a576000848401525b50505050565b60006002820490506001821680620003b957607f821691505b60208210811415620003d057620003cf6200040c565b5b50919050565b620003e1826200047e565b810181811067ffffffffffffffff821117156200040357620004026200043b565b5b80604052505050565b7f4e487b7100000000000000000000000000000000000000000000000000000000600052602260045260246000fd5b7f4e487b7100000000000000000000000000000000000000000000000000000000600052604160045260246000fd5b600080fd5b600080fd5b600080fd5b600080fd5b6000601f19601f8301169050919050565b6200049a8162000336565b8114620004a657600080fd5b50565b612a5780620004b96000396000f3fe608060405234801561001057600080fd5b50600436106100ea5760003560e01c806370a082311161008c578063b88d4fde11610066578063b88d4fde1461025b578063beebe20c14610277578063c87b56dd146102a7578063e985e9c5146102d7576100ea565b806370a08231146101f157806395d89b4114610221578063a22cb4651461023f576100ea565b8063095ea7b3116100c8578063095ea7b31461016d57806323b872dd1461018957806342842e0e146101a55780636352211e146101c1576100ea565b806301ffc9a7146100ef57806306fdde031461011f578063081812fc1461013d575b600080fd5b61010960048036038101906101049190611aa6565b610307565b6040516101169190611f14565b60405180910390f35b6101276103e9565b6040516101349190611f2f565b60405180910390f35b61015760048036038101906101529190611b00565b61047b565b6040516101649190611ead565b60405180910390f35b61018760048036038101906101829190611a39565b610500565b005b6101a3600480360381019061019e9190611923565b610618565b005b6101bf60048036038101906101ba9190611923565b610678565b005b6101db60048036038101906101d69190611b00565b610698565b6040516101e89190611ead565b60405180910390f35b61020b600480360381019061020691906118b6565b61074a565b6040516102189190612151565b60405180910390f35b610229610802565b6040516102369190611f2f565b60405180910390f35b610259600480360381019061025491906119f9565b610894565b005b61027560048036038101906102709190611976565b6108aa565b005b610291600480360381019061028c9190611b2d565b61090c565b60405161029e9190612151565b60405180910390f35b6102c160048036038101906102bc9190611b00565b610ada565b6040516102ce9190611f2f565b60405180910390f35b6102f160048036038101906102ec91906118e3565b610b81565b6040516102fe9190611f14565b60405180910390f35b60007f80ac58cd000000000000000000000000000000000000000000000000000000007bffffffffffffffffffffffffffffffffffffffffffffffffffffffff1916827bffffffffffffffffffffffffffffffffffffffffffffffffffffffff191614806103d257507f5b5e139f000000000000000000000000000000000000000000000000000000007bffffffffffffffffffffffffffffffffffffffffffffffffffffffff1916827bffffffffffffffffffffffffffffffffffffffffffffffffffffffff1916145b806103e257506103e182610c15565b5b9050919050565b6060600080546103f8906123a6565b80601f0160208091040260200160405190810160405280929190818152602001828054610424906123a6565b80156104715780601f1061044657610100808354040283529160200191610471565b820191906000526020600020905b81548152906001019060200180831161045457829003601f168201915b5050505050905090565b600061048682610c7f565b6104c5576040517f08c379a00000000000000000000000000000000000000000000000000000000081526004016104bc90612091565b60405180910390fd5b6004600083815260200190815260200160002060009054906101000a900473ffffffffffffffffffffffffffffffffffffffff169050919050565b600061050b82610698565b90508073ffffffffffffffffffffffffffffffffffffffff168373ffffffffffffffffffffffffffffffffffffffff16141561057c576040517f08c379a0000000000000000000000000000000000000000000000000000000008152600401610573906120f1565b60405180910390fd5b8073ffffffffffffffffffffffffffffffffffffffff1661059b610ceb565b73ffffffffffffffffffffffffffffffffffffffff1614806105ca57506105c9816105c4610ceb565b610b81565b5b610609576040517f08c379a000000000000000000000000000000000000000000000000000000000815260040161060090612011565b60405180910390fd5b6106138383610cf3565b505050565b610629610623610ceb565b82610dac565b610668576040517f08c379a000000000000000000000000000000000000000000000000000000000815260040161065f90612111565b60405180910390fd5b610673838383610e8a565b505050565b610693838383604051806020016040528060008152506108aa565b505050565b6000806002600084815260200190815260200160002060009054906101000a900473ffffffffffffffffffffffffffffffffffffffff169050600073ffffffffffffffffffffffffffffffffffffffff168173ffffffffffffffffffffffffffffffffffffffff161415610741576040517f08c379a000000000000000000000000000000000000000000000000000000000815260040161073890612051565b60405180910390fd5b80915050919050565b60008073ffffffffffffffffffffffffffffffffffffffff168273ffffffffffffffffffffffffffffffffffffffff1614156107bb576040517f08c379a00000000000000000000000000000000000000000000000000000000081526004016107b290612031565b60405180910390fd5b600360008373ffffffffffffffffffffffffffffffffffffffff1673ffffffffffffffffffffffffffffffffffffffff168152602001908152602001600020549050919050565b606060018054610811906123a6565b80601f016020809104026020016040519081016040528092919081815260200182805461083d906123a6565b801561088a5780601f1061085f5761010080835404028352916020019161088a565b820191906000526020600020905b81548152906001019060200180831161086d57829003601f168201915b5050505050905090565b6108a661089f610ceb565b83836110e6565b5050565b6108bb6108b5610ceb565b83610dac565b6108fa576040517f08c379a00000000000000000000000000000000000000000000000000000000081526004016108f190612111565b60405180910390fd5b61090684848484611253565b50505050565b6000600660009054906101000a900473ffffffffffffffffffffffffffffffffffffffff1673ffffffffffffffffffffffffffffffffffffffff163373ffffffffffffffffffffffffffffffffffffffff161461099e576040517f08c379a000000000000000000000000000000000000000000000000000000000815260040161099590612131565b60405180910390fd5b600760009054906101000a900473ffffffffffffffffffffffffffffffffffffffff1673ffffffffffffffffffffffffffffffffffffffff1663353e86d984846040518363ffffffff1660e01b81526004016109fb92919061216c565b602060405180830381600087803b158015610a1557600080fd5b505af1158015610a29573d6000803e3d6000fd5b505050506040513d601f19601f82011682018060405250810190610a4d9190611a79565b610a8c576040517f08c379a0000000000000000000000000000000000000000000000000000000008152600401610a8390611f51565b60405180910390fd5b610a9660086112af565b6000610aa260086112c5565b9050610ad0600660009054906101000a900473ffffffffffffffffffffffffffffffffffffffff16826112d3565b8091505092915050565b6060610ae582610c7f565b610b24576040517f08c379a0000000000000000000000000000000000000000000000000000000008152600401610b1b906120d1565b60405180910390fd5b6000610b2e6114a1565b90506000815111610b4e5760405180602001604052806000815250610b79565b80610b58846114b8565b604051602001610b69929190611e89565b6040516020818303038152906040525b915050919050565b6000600560008473ffffffffffffffffffffffffffffffffffffffff1673ffffffffffffffffffffffffffffffffffffffff16815260200190815260200160002060008373ffffffffffffffffffffffffffffffffffffffff1673ffffffffffffffffffffffffffffffffffffffff16815260200190815260200160002060009054906101000a900460ff16905092915050565b60007f01ffc9a7000000000000000000000000000000000000000000000000000000007bffffffffffffffffffffffffffffffffffffffffffffffffffffffff1916827bffffffffffffffffffffffffffffffffffffffffffffffffffffffff1916149050919050565b60008073ffffffffffffffffffffffffffffffffffffffff166002600084815260200190815260200160002060009054906101000a900473ffffffffffffffffffffffffffffffffffffffff1673ffffffffffffffffffffffffffffffffffffffff1614159050919050565b600033905090565b816004600083815260200190815260200160002060006101000a81548173ffffffffffffffffffffffffffffffffffffffff021916908373ffffffffffffffffffffffffffffffffffffffff160217905550808273ffffffffffffffffffffffffffffffffffffffff16610d6683610698565b73ffffffffffffffffffffffffffffffffffffffff167f8c5be1e5ebec7d5bd14f71427d1e84f3dd0314c0f7b2291e5b200ac8c7c3b92560405160405180910390a45050565b6000610db782610c7f565b610df6576040517f08c379a0000000000000000000000000000000000000000000000000000000008152600401610ded90611ff1565b60405180910390fd5b6000610e0183610698565b90508073ffffffffffffffffffffffffffffffffffffffff168473ffffffffffffffffffffffffffffffffffffffff161480610e7057508373ffffffffffffffffffffffffffffffffffffffff16610e588461047b565b73ffffffffffffffffffffffffffffffffffffffff16145b80610e815750610e808185610b81565b5b91505092915050565b8273ffffffffffffffffffffffffffffffffffffffff16610eaa82610698565b73ffffffffffffffffffffffffffffffffffffffff1614610f00576040517f08c379a0000000000000000000000000000000000000000000000000000000008152600401610ef7906120b1565b60405180910390fd5b600073ffffffffffffffffffffffffffffffffffffffff168273ffffffffffffffffffffffffffffffffffffffff161415610f70576040517f08c379a0000000000000000000000000000000000000000000000000000000008152600401610f6790611fb1565b60405180910390fd5b610f7b838383611619565b610f86600082610cf3565b6001600360008573ffffffffffffffffffffffffffffffffffffffff1673ffffffffffffffffffffffffffffffffffffffff1681526020019081526020016000206000828254610fd691906122bc565b925050819055506001600360008473ffffffffffffffffffffffffffffffffffffffff1673ffffffffffffffffffffffffffffffffffffffff168152602001908152602001600020600082825461102d9190612235565b92505081905550816002600083815260200190815260200160002060006101000a81548173ffffffffffffffffffffffffffffffffffffffff021916908373ffffffffffffffffffffffffffffffffffffffff160217905550808273ffffffffffffffffffffffffffffffffffffffff168473ffffffffffffffffffffffffffffffffffffffff167fddf252ad1be2c89b69c2b068fc378daa952ba7f163c4a11628f55a4df523b3ef60405160405180910390a4505050565b8173ffffffffffffffffffffffffffffffffffffffff168373ffffffffffffffffffffffffffffffffffffffff161415611155576040517f08c379a000000000000000000000000000000000000000000000000000000000815260040161114c90611fd1565b60405180910390fd5b80600560008573ffffffffffffffffffffffffffffffffffffffff1673ffffffffffffffffffffffffffffffffffffffff16815260200190815260200160002060008473ffffffffffffffffffffffffffffffffffffffff1673ffffffffffffffffffffffffffffffffffffffff16815260200190815260200160002060006101000a81548160ff0219169083151502179055508173ffffffffffffffffffffffffffffffffffffffff168373ffffffffffffffffffffffffffffffffffffffff167f17307eab39ab6107e8899845ad3d59bd9653f200f220920489ca2b5937696c31836040516112469190611f14565b60405180910390a3505050565b61125e848484610e8a565b61126a8484848461161e565b6112a9576040517f08c379a00000000000000000000000000000000000000000000000000000000081526004016112a090611f71565b60405180910390fd5b50505050565b6001816000016000828254019250508190555050565b600081600001549050919050565b600073ffffffffffffffffffffffffffffffffffffffff168273ffffffffffffffffffffffffffffffffffffffff161415611343576040517f08c379a000000000000000000000000000000000000000000000000000000000815260040161133a90612071565b60405180910390fd5b61134c81610c7f565b1561138c576040517f08c379a000000000000000000000000000000000000000000000000000000000815260040161138390611f91565b60405180910390fd5b61139860008383611619565b6001600360008473ffffffffffffffffffffffffffffffffffffffff1673ffffffffffffffffffffffffffffffffffffffff16815260200190815260200160002060008282546113e89190612235565b92505081905550816002600083815260200190815260200160002060006101000a81548173ffffffffffffffffffffffffffffffffffffffff021916908373ffffffffffffffffffffffffffffffffffffffff160217905550808273ffffffffffffffffffffffffffffffffffffffff16600073ffffffffffffffffffffffffffffffffffffffff167fddf252ad1be2c89b69c2b068fc378daa952ba7f163c4a11628f55a4df523b3ef60405160405180910390a45050565b606060405180602001604052806000815250905090565b60606000821415611500576040518060400160405280600181526020017f30000000000000000000000000000000000000000000000000000000000000008152509050611614565b600082905060005b6000821461153257808061151b90612409565b915050600a8261152b919061228b565b9150611508565b60008167ffffffffffffffff81111561154e5761154d61253f565b5b6040519080825280601f01601f1916602001820160405280156115805781602001600182028036833780820191505090505b5090505b6000851461160d5760018261159991906122bc565b9150600a856115a89190612452565b60306115b49190612235565b60f81b8183815181106115ca576115c9612510565b5b60200101907effffffffffffffffffffffffffffffffffffffffffffffffffffffffffffff1916908160001a905350600a85611606919061228b565b9450611584565b8093505050505b919050565b505050565b600061163f8473ffffffffffffffffffffffffffffffffffffffff166117b5565b156117a8578373ffffffffffffffffffffffffffffffffffffffff1663150b7a02611668610ceb565b8786866040518563ffffffff1660e01b815260040161168a9493929190611ec8565b602060405180830381600087803b1580156116a457600080fd5b505af19250505080156116d557506040513d601f19601f820116820180604052508101906116d29190611ad3565b60015b611758573d8060008114611705576040519150601f19603f3d011682016040523d82523d6000602084013e61170a565b606091505b50600081511415611750576040517f08c379a000000000000000000000000000000000000000000000000000000000815260040161174790611f71565b60405180910390fd5b805181602001fd5b63150b7a0260e01b7bffffffffffffffffffffffffffffffffffffffffffffffffffffffff1916817bffffffffffffffffffffffffffffffffffffffffffffffffffffffff1916149150506117ad565b600190505b949350505050565b600080823b905060008111915050919050565b60006117db6117d6846121c1565b61219c565b9050828152602081018484840111156117f7576117f6612573565b5b611802848285612364565b509392505050565b600081359050611819816129c5565b92915050565b60008135905061182e816129dc565b92915050565b600081519050611843816129dc565b92915050565b600081359050611858816129f3565b92915050565b60008151905061186d816129f3565b92915050565b600082601f8301126118885761188761256e565b5b81356118988482602086016117c8565b91505092915050565b6000813590506118b081612a0a565b92915050565b6000602082840312156118cc576118cb61257d565b5b60006118da8482850161180a565b91505092915050565b600080604083850312156118fa576118f961257d565b5b60006119088582860161180a565b92505060206119198582860161180a565b9150509250929050565b60008060006060848603121561193c5761193b61257d565b5b600061194a8682870161180a565b935050602061195b8682870161180a565b925050604061196c868287016118a1565b9150509250925092565b600080600080608085870312156119905761198f61257d565b5b600061199e8782880161180a565b94505060206119af8782880161180a565b93505060406119c0878288016118a1565b925050606085013567ffffffffffffffff8111156119e1576119e0612578565b5b6119ed87828801611873565b91505092959194509250565b60008060408385031215611a1057611a0f61257d565b5b6000611a1e8582860161180a565b9250506020611a2f8582860161181f565b9150509250929050565b60008060408385031215611a5057611a4f61257d565b5b6000611a5e8582860161180a565b9250506020611a6f858286016118a1565b9150509250929050565b600060208284031215611a8f57611a8e61257d565b5b6000611a9d84828501611834565b91505092915050565b600060208284031215611abc57611abb61257d565b5b6000611aca84828501611849565b91505092915050565b600060208284031215611ae957611ae861257d565b5b6000611af78482850161185e565b91505092915050565b600060208284031215611b1657611b1561257d565b5b6000611b24848285016118a1565b91505092915050565b60008060408385031215611b4457611b4361257d565b5b6000611b52858286016118a1565b925050602083013567ffffffffffffffff811115611b7357611b72612578565b5b611b7f85828601611873565b9150509250929050565b611b92816122f0565b82525050565b611ba181612302565b82525050565b6000611bb2826121f2565b611bbc8185612208565b9350611bcc818560208601612373565b611bd581612582565b840191505092915050565b6000611beb826121fd565b611bf58185612219565b9350611c05818560208601612373565b611c0e81612582565b840191505092915050565b6000611c24826121fd565b611c2e818561222a565b9350611c3e818560208601612373565b80840191505092915050565b6000611c57601283612219565b9150611c6282612593565b602082019050919050565b6000611c7a603283612219565b9150611c85826125bc565b604082019050919050565b6000611c9d601c83612219565b9150611ca88261260b565b602082019050919050565b6000611cc0602483612219565b9150611ccb82612634565b604082019050919050565b6000611ce3601983612219565b9150611cee82612683565b602082019050919050565b6000611d06602c83612219565b9150611d11826126ac565b604082019050919050565b6000611d29603883612219565b9150611d34826126fb565b604082019050919050565b6000611d4c602a83612219565b9150611d578261274a565b604082019050919050565b6000611d6f602983612219565b9150611d7a82612799565b604082019050919050565b6000611d92602083612219565b9150611d9d826127e8565b602082019050919050565b6000611db5602c83612219565b9150611dc082612811565b604082019050919050565b6000611dd8602983612219565b9150611de382612860565b604082019050919050565b6000611dfb602f83612219565b9150611e06826128af565b604082019050919050565b6000611e1e602183612219565b9150611e29826128fe565b604082019050919050565b6000611e41603183612219565b9150611e4c8261294d565b604082019050919050565b6000611e64600d83612219565b9150611e6f8261299c565b602082019050919050565b611e838161235a565b82525050565b6000611e958285611c19565b9150611ea18284611c19565b91508190509392505050565b6000602082019050611ec26000830184611b89565b92915050565b6000608082019050611edd6000830187611b89565b611eea6020830186611b89565b611ef76040830185611e7a565b8181036060830152611f098184611ba7565b905095945050505050565b6000602082019050611f296000830184611b98565b92915050565b60006020820190508181036000830152611f498184611be0565b905092915050565b60006020820190508181036000830152611f6a81611c4a565b9050919050565b60006020820190508181036000830152611f8a81611c6d565b9050919050565b60006020820190508181036000830152611faa81611c90565b9050919050565b60006020820190508181036000830152611fca81611cb3565b9050919050565b60006020820190508181036000830152611fea81611cd6565b9050919050565b6000602082019050818103600083015261200a81611cf9565b9050919050565b6000602082019050818103600083015261202a81611d1c565b9050919050565b6000602082019050818103600083015261204a81611d3f565b9050919050565b6000602082019050818103600083015261206a81611d62565b9050919050565b6000602082019050818103600083015261208a81611d85565b9050919050565b600060208201905081810360008301526120aa81611da8565b9050919050565b600060208201905081810360008301526120ca81611dcb565b9050919050565b600060208201905081810360008301526120ea81611dee565b9050919050565b6000602082019050818103600083015261210a81611e11565b9050919050565b6000602082019050818103600083015261212a81611e34565b9050919050565b6000602082019050818103600083015261214a81611e57565b9050919050565b60006020820190506121666000830184611e7a565b92915050565b60006040820190506121816000830185611e7a565b81810360208301526121938184611ba7565b90509392505050565b60006121a66121b7565b90506121b282826123d8565b919050565b6000604051905090565b600067ffffffffffffffff8211156121dc576121db61253f565b5b6121e582612582565b9050602081019050919050565b600081519050919050565b600081519050919050565b600082825260208201905092915050565b600082825260208201905092915050565b600081905092915050565b60006122408261235a565b915061224b8361235a565b9250827fffffffffffffffffffffffffffffffffffffffffffffffffffffffffffffffff038211156122805761227f612483565b5b828201905092915050565b60006122968261235a565b91506122a18361235a565b9250826122b1576122b06124b2565b5b828204905092915050565b60006122c78261235a565b91506122d28361235a565b9250828210156122e5576122e4612483565b5b828203905092915050565b60006122fb8261233a565b9050919050565b60008115159050919050565b60007fffffffff0000000000000000000000000000000000000000000000000000000082169050919050565b600073ffffffffffffffffffffffffffffffffffffffff82169050919050565b6000819050919050565b82818337600083830152505050565b60005b83811015612391578082015181840152602081019050612376565b838111156123a0576000848401525b50505050565b600060028204905060018216806123be57607f821691505b602082108114156123d2576123d16124e1565b5b50919050565b6123e182612582565b810181811067ffffffffffffffff82111715612400576123ff61253f565b5b80604052505050565b60006124148261235a565b91507fffffffffffffffffffffffffffffffffffffffffffffffffffffffffffffffff82141561244757612446612483565b5b600182019050919050565b600061245d8261235a565b91506124688361235a565b925082612478576124776124b2565b5b828206905092915050565b7f4e487b7100000000000000000000000000000000000000000000000000000000600052601160045260246000fd5b7f4e487b7100000000000000000000000000000000000000000000000000000000600052601260045260246000fd5b7f4e487b7100000000000000000000000000000000000000000000000000000000600052602260045260246000fd5b7f4e487b7100000000000000000000000000000000000000000000000000000000600052603260045260246000fd5b7f4e487b7100000000000000000000000000000000000000000000000000000000600052604160045260246000fd5b600080fd5b600080fd5b600080fd5b600080fd5b6000601f19601f8301169050919050565b7f4576656e74206e6f7420696e20626c6f636b0000000000000000000000000000600082015250565b7f4552433732313a207472616e7366657220746f206e6f6e20455243373231526560008201527f63656976657220696d706c656d656e7465720000000000000000000000000000602082015250565b7f4552433732313a20746f6b656e20616c7265616479206d696e74656400000000600082015250565b7f4552433732313a207472616e7366657220746f20746865207a65726f2061646460008201527f7265737300000000000000000000000000000000000000000000000000000000602082015250565b7f4552433732313a20617070726f766520746f2063616c6c657200000000000000600082015250565b7f4552433732313a206f70657261746f7220717565727920666f72206e6f6e657860008201527f697374656e7420746f6b656e0000000000000000000000000000000000000000602082015250565b7f4552433732313a20617070726f76652063616c6c6572206973206e6f74206f7760008201527f6e6572206e6f7220617070726f76656420666f7220616c6c0000000000000000602082015250565b7f4552433732313a2062616c616e636520717565727920666f7220746865207a6560008201527f726f206164647265737300000000000000000000000000000000000000000000602082015250565b7f4552433732313a206f776e657220717565727920666f72206e6f6e657869737460008201527f656e7420746f6b656e0000000000000000000000000000000000000000000000602082015250565b7f4552433732313a206d696e7420746f20746865207a65726f2061646472657373600082015250565b7f4552433732313a20617070726f76656420717565727920666f72206e6f6e657860008201527f697374656e7420746f6b656e0000000000000000000000000000000000000000602082015250565b7f4552433732313a207472616e73666572206f6620746f6b656e2074686174206960008201527f73206e6f74206f776e0000000000000000000000000000000000000000000000602082015250565b7f4552433732314d657461646174613a2055524920717565727920666f72206e6f60008201527f6e6578697374656e7420746f6b656e0000000000000000000000000000000000602082015250565b7f4552433732313a20617070726f76616c20746f2063757272656e74206f776e6560008201527f7200000000000000000000000000000000000000000000000000000000000000602082015250565b7f4552433732313a207472616e736665722063616c6c6572206973206e6f74206f60008201527f776e6572206e6f7220617070726f766564000000000000000000000000000000602082015250565b7f4163636573732064656e69656400000000000000000000000000000000000000600082015250565b6129ce816122f0565b81146129d957600080fd5b50565b6129e581612302565b81146129f057600080fd5b50565b6129fc8161230e565b8114612a0757600080fd5b50565b612a138161235a565b8114612a1e57600080fd5b5056fea26469706673582212201ebf9fa209b9d6cb2e28bfdc9a68d30dc3646f3d81915d5d09c711ff91b379bb64736f6c63430008060033",
  "immutableReferences": {},
  "source": "// SPDX-License-Identifier: MIT\npragma solidity ^0.8.0;\n\nimport \"openzeppelin-solidity/contracts/token/ERC721/ERC721.sol\";\nimport \"openzeppelin-solidity/contracts/utils/Counters.sol\";\nimport \"../contracts/ChainRelay.sol\";\n\n\n/** @title Wrapped Token Contract */\ncontract WrappedToken is ERC721 {\n    \n    address internal _owner;\n    ChainRelay internal _relayContract;\n    \n    using Counters for Counters.Counter;\n    Counters.Counter private _tokenIds;\n    \n    // Map tokenId to (remaining) balance of token/batch\n    mapping(uint256 => uint256) private _tokenBalance;\n    \n    modifier isOwner() {\n        require(msg.sender == _owner, \"Access denied\");\n        _;\n    }\n\n    constructor(string memory componentName, string memory componentShort, address chainRelayAdr) ERC721(componentName, componentShort) {\n        _owner = msg.sender;\n        _relayContract = ChainRelay(chainRelayAdr);\n    }\n    \n\n    function mintWrappedToken(uint256 blockNo, bytes memory merkleProof) public isOwner returns (uint256) {\n\n        require(_relayContract.isEventInBlock(blockNo, merkleProof), \"Event not in block\");\n        \n        // create new token/batch\n        _tokenIds.increment();\n    \n        uint256 newTokenId = _tokenIds.current();\n        _mint(_owner, newTokenId);\n        //_tokenBalance[newTokenId] = batchSize;\n    \n        return newTokenId;\n    }   \n}\n",
  "sourcePath": "/home/jan/workspace/token_compositions/contracts/WrappedToken.sol",
  "compiler": {
    "name": "solc",
    "version": "0.8.6+commit.11564f7e.Emscripten.clang"
  },
  "schemaVersion": "3.4.4",
  "updatedAt": "2022-01-14T09:55:14.408Z",
  "devdoc": {
    "kind": "dev",
    "methods": {
      "approve(address,uint256)": {
        "details": "See {IERC721-approve}."
      },
      "balanceOf(address)": {
        "details": "See {IERC721-balanceOf}."
      },
      "getApproved(uint256)": {
        "details": "See {IERC721-getApproved}."
      },
      "isApprovedForAll(address,address)": {
        "details": "See {IERC721-isApprovedForAll}."
      },
      "name()": {
        "details": "See {IERC721Metadata-name}."
      },
      "ownerOf(uint256)": {
        "details": "See {IERC721-ownerOf}."
      },
      "safeTransferFrom(address,address,uint256)": {
        "details": "See {IERC721-safeTransferFrom}."
      },
      "safeTransferFrom(address,address,uint256,bytes)": {
        "details": "See {IERC721-safeTransferFrom}."
      },
      "setApprovalForAll(address,bool)": {
        "details": "See {IERC721-setApprovalForAll}."
      },
      "supportsInterface(bytes4)": {
        "details": "See {IERC165-supportsInterface}."
      },
      "symbol()": {
        "details": "See {IERC721Metadata-symbol}."
      },
      "tokenURI(uint256)": {
        "details": "See {IERC721Metadata-tokenURI}."
      },
      "transferFrom(address,address,uint256)": {
        "details": "See {IERC721-transferFrom}."
      }
    },
    "title": "Wrapped Token Contract ",
    "version": 1
  },
  "userdoc": {
    "kind": "user",
    "methods": {},
    "version": 1
  }
}